20230710-01:27:40.000000000 : 8=FIX.4.4|9=106|35=A|34=1|49=TEST80129|52=20230710-01:27:40.000|56=QFXPRICES|98=0|108=20|141=Y|553=test80129|554=fd55ds64|10=047|
20230710-01:27:43.000000000 : 8=FIX.4.4|9=79|35=A|34=1|49=QFXPRICES|52=20230710-01:27:38.306|56=TEST80129|98=0|108=20|141=Y|10=040|
20230710-01:27:43.000000000 : 8=FIX.4.4|9=112|35=R|34=2|49=TEST80129|52=20230710-01:27:43.000|56=QFXPRICES|55=GBPUSD|146=1|262=12356|263=1|264=1|644=99999999|10=021|
20230710-01:27:43.000000000 : 8=FIX.4.4|9=112|35=R|34=3|49=TEST80129|52=20230710-01:27:43.000|56=QFXPRICES|55=EURUSD|146=1|262=12356|263=1|264=1|644=99999999|10=041|
20230710-01:27:43.000000000 : 8=FIX.4.4|9=112|35=R|34=4|49=TEST80129|52=20230710-01:27:43.000|56=QFXPRICES|55=CCCCCC|146=1|262=12356|263=1|264=1|644=99999999|10=228|
20230710-01:27:44.000000000 : 8=FIX.4.4|9=127|35=3|34=2|49=QFXPRICES|52=20230710-01:27:38.521|56=TEST80129|45=2|58=Tag not defined for this message type|371=262|372=R|373=2|10=209|
20230710-01:27:44.000000000 : 8=FIX.4.4|9=127|35=3|34=3|49=QFXPRICES|52=20230710-01:27:38.771|56=TEST80129|45=3|58=Tag not defined for this message type|371=262|372=R|373=2|10=218|
20230710-01:27:44.000000000 : 8=FIX.4.4|9=127|35=3|34=4|49=QFXPRICES|52=20230710-01:27:38.771|56=TEST80129|45=4|58=Tag not defined for this message type|371=262|372=R|373=2|10=220|
20230710-01:43:07.000000000 : 8=FIX.4.4|9=106|35=A|34=1|49=TEST80129|52=20230710-01:43:07.000|56=QFXPRICES|98=0|108=20|141=Y|553=test80129|554=fd55ds64|10=048|
20230710-01:43:07.000000000 : 8=FIX.4.4|9=79|35=A|34=1|49=QFXPRICES|52=20230710-01:43:02.014|56=TEST80129|98=0|108=20|141=Y|10=025|
20230710-01:43:07.000000000 : 8=FIX.4.4|9=112|35=R|34=2|49=TEST80129|52=20230710-01:43:07.000|56=QFXPRICES|55=GBPUSD|146=1|262=12356|263=1|264=1|644=99999999|10=019|
20230710-01:43:07.000000000 : 8=FIX.4.4|9=112|35=R|34=3|49=TEST80129|52=20230710-01:43:07.000|56=QFXPRICES|55=EURUSD|146=1|262=12356|263=1|264=1|644=99999999|10=039|
20230710-01:43:07.000000000 : 8=FIX.4.4|9=112|35=R|34=4|49=TEST80129|52=20230710-01:43:07.000|56=QFXPRICES|55=CCCCCC|146=1|262=12356|263=1|264=1|644=99999999|10=226|
20230710-01:43:07.000000000 : 8=FIX.4.4|9=127|35=3|34=2|49=QFXPRICES|52=20230710-01:43:02.291|56=TEST80129|45=2|58=Tag not defined for this message type|371=262|372=R|373=2|10=202|
20230710-01:43:08.000000000 : 8=FIX.4.4|9=127|35=3|34=3|49=QFXPRICES|52=20230710-01:43:02.596|56=TEST80129|45=3|58=Tag not defined for this message type|371=262|372=R|373=2|10=212|
20230710-01:43:08.000000000 : 8=FIX.4.4|9=127|35=3|34=4|49=QFXPRICES|52=20230710-01:43:02.596|56=TEST80129|45=4|58=Tag not defined for this message type|371=262|372=R|373=2|10=214|
20230710-02:48:48.000000000 : 8=FIX.4.4|9=106|35=A|34=1|49=TEST80129|52=20230710-02:48:48.000|56=QFXPRICES|98=0|108=20|141=Y|553=test80129|554=fd55ds64|10=059|
20230710-02:48:52.000000000 : 8=FIX.4.4|9=79|35=A|34=1|49=QFXPRICES|52=20230710-02:48:46.573|56=TEST80129|98=0|108=20|141=Y|10=049|
20230710-02:48:52.000000000 : 8=FIX.4.4|9=112|35=R|34=2|49=TEST80129|52=20230710-02:48:52.000|56=QFXPRICES|55=GBPUSD|146=1|262=12356|263=1|264=1|644=99999999|10=025|
20230710-02:48:52.000000000 : 8=FIX.4.4|9=112|35=R|34=3|49=TEST80129|52=20230710-02:48:52.000|56=QFXPRICES|55=EURUSD|146=1|262=12356|263=1|264=1|644=99999999|10=045|
20230710-02:48:52.000000000 : 8=FIX.4.4|9=112|35=R|34=4|49=TEST80129|52=20230710-02:48:52.000|56=QFXPRICES|55=CCCCCC|146=1|262=12356|263=1|264=1|644=99999999|10=232|
20230710-02:48:52.000000000 : 8=FIX.4.4|9=127|35=3|34=2|49=QFXPRICES|52=20230710-02:48:46.775|56=TEST80129|45=2|58=Tag not defined for this message type|371=262|372=R|373=2|10=223|
20230710-02:48:52.000000000 : 8=FIX.4.4|9=127|35=3|34=3|49=QFXPRICES|52=20230710-02:48:46.973|56=TEST80129|45=3|58=Tag not defined for this message type|371=262|372=R|373=2|10=225|
20230710-02:48:52.000000000 : 8=FIX.4.4|9=127|35=3|34=4|49=QFXPRICES|52=20230710-02:48:46.973|56=TEST80129|45=4|58=Tag not defined for this message type|371=262|372=R|373=2|10=227|
20230710-02:49:12.000000000 : 8=FIX.4.4|9=61|35=0|34=5|49=TEST80129|52=20230710-02:49:12.000|56=QFXPRICES|10=193|
20230710-02:49:12.000000000 : 8=FIX.4.4|9=61|35=0|34=5|49=QFXPRICES|52=20230710-02:49:07.137|56=TEST80129|10=208|
20230710-02:49:32.000000000 : 8=FIX.4.4|9=61|35=0|34=6|49=QFXPRICES|52=20230710-02:49:27.137|56=TEST80129|10=211|
20230710-02:49:32.000000000 : 8=FIX.4.4|9=61|35=0|34=6|49=TEST80129|52=20230710-02:49:32.000|56=QFXPRICES|10=196|
20230710-02:49:52.000000000 : 8=FIX.4.4|9=61|35=0|34=7|49=TEST80129|52=20230710-02:49:52.000|56=QFXPRICES|10=199|
20230710-02:49:52.000000000 : 8=FIX.4.4|9=61|35=0|34=7|49=QFXPRICES|52=20230710-02:49:47.137|56=TEST80129|10=214|
20230710-02:50:12.000000000 : 8=FIX.4.4|9=61|35=0|34=8|49=TEST80129|52=20230710-02:50:12.000|56=QFXPRICES|10=188|
20230710-02:50:12.000000000 : 8=FIX.4.4|9=61|35=0|34=8|49=QFXPRICES|52=20230710-02:50:07.137|56=TEST80129|10=203|
20230710-02:50:32.000000000 : 8=FIX.4.4|9=61|35=0|34=9|49=TEST80129|52=20230710-02:50:32.000|56=QFXPRICES|10=191|
20230710-02:50:32.000000000 : 8=FIX.4.4|9=61|35=0|34=9|49=QFXPRICES|52=20230710-02:50:27.136|56=TEST80129|10=205|
20230710-02:50:52.000000000 : 8=FIX.4.4|9=62|35=0|34=10|49=TEST80129|52=20230710-02:50:52.000|56=QFXPRICES|10=234|
20230710-02:50:52.000000000 : 8=FIX.4.4|9=62|35=0|34=10|49=QFXPRICES|52=20230710-02:50:47.136|56=TEST80129|10=248|
20230710-02:51:12.000000000 : 8=FIX.4.4|9=62|35=0|34=11|49=QFXPRICES|52=20230710-02:51:07.137|56=TEST80129|10=247|
20230710-02:51:12.000000000 : 8=FIX.4.4|9=62|35=0|34=11|49=TEST80129|52=20230710-02:51:12.000|56=QFXPRICES|10=232|
20230710-02:51:33.000000000 : 8=FIX.4.4|9=106|35=A|34=1|49=TEST80129|52=20230710-02:51:33.000|56=QFXPRICES|98=0|108=20|141=Y|553=test80129|554=fd55ds64|10=047|
20230710-02:51:37.000000000 : 8=FIX.4.4|9=79|35=A|34=1|49=QFXPRICES|52=20230710-02:51:31.756|56=TEST80129|98=0|108=20|141=Y|10=040|
20230710-02:51:37.000000000 : 8=FIX.4.4|9=112|35=R|34=2|49=TEST80129|52=20230710-02:51:37.000|56=QFXPRICES|55=GBPUSD|146=1|262=12356|263=1|264=1|644=99999999|10=022|
20230710-02:51:37.000000000 : 8=FIX.4.4|9=112|35=R|34=3|49=TEST80129|52=20230710-02:51:37.000|56=QFXPRICES|55=EURUSD|146=1|262=12356|263=1|264=1|644=99999999|10=042|
20230710-02:51:37.000000000 : 8=FIX.4.4|9=112|35=R|34=4|49=TEST80129|52=20230710-02:51:37.000|56=QFXPRICES|55=CCCCCC|146=1|262=12356|263=1|264=1|644=99999999|10=229|
20230710-02:51:37.000000000 : 8=FIX.4.4|9=127|35=3|34=2|49=QFXPRICES|52=20230710-02:51:31.958|56=TEST80129|45=2|58=Tag not defined for this message type|371=262|372=R|373=2|10=214|
20230710-02:51:37.000000000 : 8=FIX.4.4|9=127|35=3|34=3|49=QFXPRICES|52=20230710-02:51:32.158|56=TEST80129|45=3|58=Tag not defined for this message type|371=262|372=R|373=2|10=209|
20230710-02:51:37.000000000 : 8=FIX.4.4|9=127|35=3|34=4|49=QFXPRICES|52=20230710-02:51:32.158|56=TEST80129|45=4|58=Tag not defined for this message type|371=262|372=R|373=2|10=211|
20230710-02:51:57.000000000 : 8=FIX.4.4|9=61|35=0|34=5|49=TEST80129|52=20230710-02:51:57.000|56=QFXPRICES|10=195|
20230710-02:51:58.000000000 : 8=FIX.4.4|9=61|35=0|34=5|49=QFXPRICES|52=20230710-02:51:53.136|56=TEST80129|10=201|
20230710-02:52:17.000000000 : 8=FIX.4.4|9=61|35=0|34=6|49=TEST80129|52=20230710-02:52:17.000|56=QFXPRICES|10=193|
20230710-02:52:18.000000000 : 8=FIX.4.4|9=61|35=0|34=6|49=QFXPRICES|52=20230710-02:52:13.137|56=TEST80129|10=200|
20230710-02:52:37.000000000 : 8=FIX.4.4|9=61|35=0|34=7|49=TEST80129|52=20230710-02:52:37.000|56=QFXPRICES|10=196|
20230710-02:52:38.000000000 : 8=FIX.4.4|9=61|35=0|34=7|49=QFXPRICES|52=20230710-02:52:33.136|56=TEST80129|10=202|
20230710-02:52:57.000000000 : 8=FIX.4.4|9=61|35=0|34=8|49=TEST80129|52=20230710-02:52:57.000|56=QFXPRICES|10=199|
20230710-02:52:58.000000000 : 8=FIX.4.4|9=61|35=0|34=8|49=QFXPRICES|52=20230710-02:52:53.136|56=TEST80129|10=205|
20230710-02:53:17.000000000 : 8=FIX.4.4|9=61|35=0|34=9|49=TEST80129|52=20230710-02:53:17.000|56=QFXPRICES|10=197|
20230710-02:53:18.000000000 : 8=FIX.4.4|9=61|35=0|34=9|49=QFXPRICES|52=20230710-02:53:13.135|56=TEST80129|10=202|
20230710-02:53:37.000000000 : 8=FIX.4.4|9=62|35=0|34=10|49=TEST80129|52=20230710-02:53:37.000|56=QFXPRICES|10=240|
20230710-02:53:38.000000000 : 8=FIX.4.4|9=62|35=0|34=10|49=QFXPRICES|52=20230710-02:53:33.135|56=TEST80129|10=245|
20230710-02:53:57.000000000 : 8=FIX.4.4|9=62|35=0|34=11|49=TEST80129|52=20230710-02:53:57.000|56=QFXPRICES|10=243|
20230710-02:54:01.000000000 : 8=FIX.4.4|9=106|35=A|34=1|49=TEST80129|52=20230710-02:54:01.000|56=QFXPRICES|98=0|108=20|141=Y|553=test80129|554=fd55ds64|10=045|
20230710-02:54:01.000000000 : 8=FIX.4.4|9=79|35=A|34=1|49=QFXPRICES|52=20230710-02:53:56.201|56=TEST80129|98=0|108=20|141=Y|10=034|
20230710-02:55:48.000000000 : 8=FIX.4.4|9=106|35=A|34=1|49=TEST80129|52=20230710-02:55:48.000|56=QFXPRICES|98=0|108=20|141=Y|553=test80129|554=fd55ds64|10=057|
20230710-02:55:51.000000000 : 8=FIX.4.4|9=79|35=A|34=1|49=QFXPRICES|52=20230710-02:55:45.805|56=TEST80129|98=0|108=20|141=Y|10=044|
20230710-02:55:51.000000000 : 8=FIX.4.4|9=112|35=R|34=2|49=TEST80129|52=20230710-02:55:51.000|56=QFXPRICES|55=GBPUSD|146=1|262=12356|263=1|264=1|644=99999999|10=022|
20230710-02:55:51.000000000 : 8=FIX.4.4|9=112|35=R|34=3|49=TEST80129|52=20230710-02:55:51.000|56=QFXPRICES|55=EURUSD|146=1|262=12356|263=1|264=1|644=99999999|10=042|
20230710-02:55:51.000000000 : 8=FIX.4.4|9=112|35=R|34=4|49=TEST80129|52=20230710-02:55:51.000|56=QFXPRICES|55=CCCCCC|146=1|262=12356|263=1|264=1|644=99999999|10=229|
20230710-02:55:51.000000000 : 8=FIX.4.4|9=127|35=3|34=2|49=QFXPRICES|52=20230710-02:55:46.006|56=TEST80129|45=2|58=Tag not defined for this message type|371=262|372=R|373=2|10=208|
20230710-02:55:51.000000000 : 8=FIX.4.4|9=127|35=3|34=3|49=QFXPRICES|52=20230710-02:55:46.208|56=TEST80129|45=3|58=Tag not defined for this message type|371=262|372=R|373=2|10=214|
20230710-02:55:51.000000000 : 8=FIX.4.4|9=127|35=3|34=4|49=QFXPRICES|52=20230710-02:55:46.208|56=TEST80129|45=4|58=Tag not defined for this message type|371=262|372=R|373=2|10=216|
20230710-02:56:11.000000000 : 8=FIX.4.4|9=61|35=0|34=5|49=TEST80129|52=20230710-02:56:11.000|56=QFXPRICES|10=190|
20230710-02:56:12.000000000 : 8=FIX.4.4|9=61|35=0|34=5|49=QFXPRICES|52=20230710-02:56:07.137|56=TEST80129|10=206|
20230710-02:56:31.000000000 : 8=FIX.4.4|9=61|35=0|34=6|49=TEST80129|52=20230710-02:56:31.000|56=QFXPRICES|10=193|
20230710-02:56:32.000000000 : 8=FIX.4.4|9=61|35=0|34=6|49=QFXPRICES|52=20230710-02:56:27.135|56=TEST80129|10=207|
20230710-02:56:51.000000000 : 8=FIX.4.4|9=61|35=0|34=7|49=TEST80129|52=20230710-02:56:51.000|56=QFXPRICES|10=196|
20230710-02:56:52.000000000 : 8=FIX.4.4|9=61|35=0|34=7|49=QFXPRICES|52=20230710-02:56:47.137|56=TEST80129|10=212|
20230710-02:57:11.000000000 : 8=FIX.4.4|9=61|35=0|34=8|49=TEST80129|52=20230710-02:57:11.000|56=QFXPRICES|10=194|
20230710-02:57:12.000000000 : 8=FIX.4.4|9=61|35=0|34=8|49=QFXPRICES|52=20230710-02:57:07.136|56=TEST80129|10=209|
20230710-02:57:31.000000000 : 8=FIX.4.4|9=61|35=0|34=9|49=TEST80129|52=20230710-02:57:31.000|56=QFXPRICES|10=197|
20230710-02:57:32.000000000 : 8=FIX.4.4|9=61|35=0|34=9|49=QFXPRICES|52=20230710-02:57:27.137|56=TEST80129|10=213|
20230710-02:57:51.000000000 : 8=FIX.4.4|9=62|35=0|34=10|49=TEST80129|52=20230710-02:57:51.000|56=QFXPRICES|10=240|
20230710-02:57:52.000000000 : 8=FIX.4.4|9=62|35=0|34=10|49=QFXPRICES|52=20230710-02:57:47.136|56=TEST80129|10=255|
20230710-02:58:11.000000000 : 8=FIX.4.4|9=62|35=0|34=11|49=TEST80129|52=20230710-02:58:11.000|56=QFXPRICES|10=238|
20230710-02:58:12.000000000 : 8=FIX.4.4|9=62|35=0|34=11|49=QFXPRICES|52=20230710-02:58:07.135|56=TEST80129|10=252|
20230710-02:58:31.000000000 : 8=FIX.4.4|9=62|35=0|34=12|49=TEST80129|52=20230710-02:58:31.000|56=QFXPRICES|10=241|
20230710-02:58:32.000000000 : 8=FIX.4.4|9=62|35=0|34=12|49=QFXPRICES|52=20230710-02:58:27.136|56=TEST80129|10=000|
20230710-02:58:51.000000000 : 8=FIX.4.4|9=62|35=0|34=13|49=TEST80129|52=20230710-02:58:51.000|56=QFXPRICES|10=244|
20230710-02:58:52.000000000 : 8=FIX.4.4|9=62|35=0|34=13|49=QFXPRICES|52=20230710-02:58:47.136|56=TEST80129|10=003|
20230710-02:59:11.000000000 : 8=FIX.4.4|9=62|35=0|34=14|49=TEST80129|52=20230710-02:59:11.000|56=QFXPRICES|10=242|
20230710-02:59:12.000000000 : 8=FIX.4.4|9=62|35=0|34=14|49=QFXPRICES|52=20230710-02:59:07.136|56=TEST80129|10=001|
20230710-02:59:31.000000000 : 8=FIX.4.4|9=62|35=0|34=15|49=TEST80129|52=20230710-02:59:31.000|56=QFXPRICES|10=245|
20230710-02:59:32.000000000 : 8=FIX.4.4|9=62|35=0|34=15|49=QFXPRICES|52=20230710-02:59:27.135|56=TEST80129|10=003|
20230710-02:59:42.000000000 : 8=FIX.4.4|9=106|35=A|34=1|49=TEST80129|52=20230710-02:59:42.000|56=QFXPRICES|98=0|108=20|141=Y|553=test80129|554=fd55ds64|10=055|
20230710-02:59:42.000000000 : 8=FIX.4.4|9=79|35=A|34=1|49=QFXPRICES|52=20230710-02:59:36.753|56=TEST80129|98=0|108=20|141=Y|10=050|
20230710-02:59:42.000000000 : 8=FIX.4.4|9=112|35=R|34=2|49=TEST80129|52=20230710-02:59:42.000|56=QFXPRICES|55=GBPUSD|146=1|262=12356|263=1|264=1|644=99999999|10=026|
20230710-02:59:42.000000000 : 8=FIX.4.4|9=112|35=R|34=3|49=TEST80129|52=20230710-02:59:42.000|56=QFXPRICES|55=EURUSD|146=1|262=12356|263=1|264=1|644=99999999|10=046|
20230710-02:59:42.000000000 : 8=FIX.4.4|9=112|35=R|34=4|49=TEST80129|52=20230710-02:59:42.000|56=QFXPRICES|55=CCCCCC|146=1|262=12356|263=1|264=1|644=99999999|10=233|
20230710-02:59:42.000000000 : 8=FIX.4.4|9=127|35=3|34=2|49=QFXPRICES|52=20230710-02:59:36.955|56=TEST80129|45=2|58=Tag not defined for this message type|371=262|372=R|373=2|10=224|
20230710-02:59:42.000000000 : 8=FIX.4.4|9=127|35=3|34=3|49=QFXPRICES|52=20230710-02:59:37.153|56=TEST80129|45=3|58=Tag not defined for this message type|371=262|372=R|373=2|10=217|
20230710-02:59:42.000000000 : 8=FIX.4.4|9=127|35=3|34=4|49=QFXPRICES|52=20230710-02:59:37.153|56=TEST80129|45=4|58=Tag not defined for this message type|371=262|372=R|373=2|10=219|
20230710-03:00:02.000000000 : 8=FIX.4.4|9=61|35=0|34=5|49=TEST80129|52=20230710-03:00:02.000|56=QFXPRICES|10=180|
20230710-03:00:03.000000000 : 8=FIX.4.4|9=61|35=0|34=5|49=QFXPRICES|52=20230710-02:59:58.136|56=TEST80129|10=214|
20230710-03:00:17.000000000 : 8=FIX.4.4|9=106|35=A|34=1|49=TEST80129|52=20230710-03:00:17.000|56=QFXPRICES|98=0|108=20|141=Y|553=test80129|554=fd55ds64|10=044|
20230710-03:00:17.000000000 : 8=FIX.4.4|9=79|35=A|34=1|49=QFXPRICES|52=20230710-03:00:12.156|56=TEST80129|98=0|108=20|141=Y|10=028|
20230710-03:00:17.000000000 : 8=FIX.4.4|9=112|35=R|34=2|49=TEST80129|52=20230710-03:00:17.000|56=QFXPRICES|55=GBPUSD|146=1|262=12356|263=1|264=1|644=99999999|10=015|
20230710-03:00:17.000000000 : 8=FIX.4.4|9=112|35=R|34=3|49=TEST80129|52=20230710-03:00:17.000|56=QFXPRICES|55=EURUSD|146=1|262=12356|263=1|264=1|644=99999999|10=035|
20230710-03:00:17.000000000 : 8=FIX.4.4|9=112|35=R|34=4|49=TEST80129|52=20230710-03:00:17.000|56=QFXPRICES|55=CCCCCC|146=1|262=12356|263=1|264=1|644=99999999|10=222|
20230710-03:00:17.000000000 : 8=FIX.4.4|9=127|35=3|34=2|49=QFXPRICES|52=20230710-03:00:12.368|56=TEST80129|45=2|58=Tag not defined for this message type|371=262|372=R|373=2|10=203|
20230710-03:00:18.000000000 : 8=FIX.4.4|9=127|35=3|34=3|49=QFXPRICES|52=20230710-03:00:12.565|56=TEST80129|45=3|58=Tag not defined for this message type|371=262|372=R|373=2|10=204|
20230710-03:00:18.000000000 : 8=FIX.4.4|9=127|35=3|34=4|49=QFXPRICES|52=20230710-03:00:12.565|56=TEST80129|45=4|58=Tag not defined for this message type|371=262|372=R|373=2|10=206|
20230710-03:00:37.000000000 : 8=FIX.4.4|9=61|35=0|34=5|49=TEST80129|52=20230710-03:00:37.000|56=QFXPRICES|10=188|
20230710-03:00:38.000000000 : 8=FIX.4.4|9=61|35=0|34=5|49=QFXPRICES|52=20230710-03:00:33.136|56=TEST80129|10=194|
20230710-03:00:57.000000000 : 8=FIX.4.4|9=61|35=0|34=6|49=TEST80129|52=20230710-03:00:57.000|56=QFXPRICES|10=191|
20230710-03:00:58.000000000 : 8=FIX.4.4|9=61|35=0|34=6|49=QFXPRICES|52=20230710-03:00:53.135|56=TEST80129|10=196|
20230710-03:01:17.000000000 : 8=FIX.4.4|9=61|35=0|34=7|49=TEST80129|52=20230710-03:01:17.000|56=QFXPRICES|10=189|
20230710-03:01:18.000000000 : 8=FIX.4.4|9=61|35=0|34=7|49=QFXPRICES|52=20230710-03:01:13.136|56=TEST80129|10=195|
20230710-03:01:37.000000000 : 8=FIX.4.4|9=61|35=0|34=8|49=TEST80129|52=20230710-03:01:37.000|56=QFXPRICES|10=192|
20230710-03:01:38.000000000 : 8=FIX.4.4|9=61|35=0|34=8|49=QFXPRICES|52=20230710-03:01:33.137|56=TEST80129|10=199|
20230710-03:01:57.000000000 : 8=FIX.4.4|9=61|35=0|34=9|49=TEST80129|52=20230710-03:01:57.000|56=QFXPRICES|10=195|
20230710-03:01:58.000000000 : 8=FIX.4.4|9=61|35=0|34=9|49=QFXPRICES|52=20230710-03:01:53.136|56=TEST80129|10=201|
20230710-03:02:17.000000000 : 8=FIX.4.4|9=62|35=0|34=10|49=TEST80129|52=20230710-03:02:17.000|56=QFXPRICES|10=233|
20230710-03:02:18.000000000 : 8=FIX.4.4|9=62|35=0|34=10|49=QFXPRICES|52=20230710-03:02:13.136|56=TEST80129|10=239|
20230710-03:02:37.000000000 : 8=FIX.4.4|9=62|35=0|34=11|49=TEST80129|52=20230710-03:02:37.000|56=QFXPRICES|10=236|
20230710-03:02:38.000000000 : 8=FIX.4.4|9=62|35=0|34=11|49=QFXPRICES|52=20230710-03:02:33.136|56=TEST80129|10=242|
20230710-03:02:57.000000000 : 8=FIX.4.4|9=62|35=0|34=12|49=TEST80129|52=20230710-03:02:57.000|56=QFXPRICES|10=239|
20230710-03:02:58.000000000 : 8=FIX.4.4|9=62|35=0|34=12|49=QFXPRICES|52=20230710-03:02:53.135|56=TEST80129|10=244|
20230710-03:03:17.000000000 : 8=FIX.4.4|9=62|35=0|34=13|49=TEST80129|52=20230710-03:03:17.000|56=QFXPRICES|10=237|
20230710-03:03:18.000000000 : 8=FIX.4.4|9=62|35=0|34=13|49=QFXPRICES|52=20230710-03:03:13.137|56=TEST80129|10=244|
20230710-03:03:37.000000000 : 8=FIX.4.4|9=62|35=0|34=14|49=TEST80129|52=20230710-03:03:37.000|56=QFXPRICES|10=240|
20230710-03:03:38.000000000 : 8=FIX.4.4|9=62|35=0|34=14|49=QFXPRICES|52=20230710-03:03:33.136|56=TEST80129|10=246|
20230710-03:03:57.000000000 : 8=FIX.4.4|9=62|35=0|34=15|49=TEST80129|52=20230710-03:03:57.000|56=QFXPRICES|10=243|
20230710-03:03:58.000000000 : 8=FIX.4.4|9=62|35=0|34=15|49=QFXPRICES|52=20230710-03:03:53.135|56=TEST80129|10=248|
20230710-03:04:17.000000000 : 8=FIX.4.4|9=62|35=0|34=16|49=TEST80129|52=20230710-03:04:17.000|56=QFXPRICES|10=241|
20230710-03:04:18.000000000 : 8=FIX.4.4|9=62|35=0|34=16|49=QFXPRICES|52=20230710-03:04:13.137|56=TEST80129|10=248|
20230710-03:04:37.000000000 : 8=FIX.4.4|9=62|35=0|34=17|49=TEST80129|52=20230710-03:04:37.000|56=QFXPRICES|10=244|
20230710-03:04:38.000000000 : 8=FIX.4.4|9=62|35=0|34=17|49=QFXPRICES|52=20230710-03:04:33.137|56=TEST80129|10=251|
20230710-03:04:57.000000000 : 8=FIX.4.4|9=62|35=0|34=18|49=TEST80129|52=20230710-03:04:57.000|56=QFXPRICES|10=247|
20230710-03:04:58.000000000 : 8=FIX.4.4|9=62|35=0|34=18|49=QFXPRICES|52=20230710-03:04:53.138|56=TEST80129|10=255|
20230710-03:05:17.000000000 : 8=FIX.4.4|9=62|35=0|34=19|49=TEST80129|52=20230710-03:05:17.000|56=QFXPRICES|10=245|
20230710-03:05:18.000000000 : 8=FIX.4.4|9=62|35=0|34=19|49=QFXPRICES|52=20230710-03:05:13.136|56=TEST80129|10=251|
20230710-03:05:37.000000000 : 8=FIX.4.4|9=62|35=0|34=20|49=TEST80129|52=20230710-03:05:37.000|56=QFXPRICES|10=239|
20230710-03:05:38.000000000 : 8=FIX.4.4|9=62|35=0|34=20|49=QFXPRICES|52=20230710-03:05:33.136|56=TEST80129|10=245|
20230710-03:05:57.000000000 : 8=FIX.4.4|9=62|35=0|34=21|49=TEST80129|52=20230710-03:05:57.000|56=QFXPRICES|10=242|
20230710-03:05:58.000000000 : 8=FIX.4.4|9=62|35=0|34=21|49=QFXPRICES|52=20230710-03:05:53.136|56=TEST80129|10=248|
20230710-03:06:17.000000000 : 8=FIX.4.4|9=62|35=0|34=22|49=TEST80129|52=20230710-03:06:17.000|56=QFXPRICES|10=240|
20230710-03:06:18.000000000 : 8=FIX.4.4|9=62|35=0|34=22|49=QFXPRICES|52=20230710-03:06:13.137|56=TEST80129|10=247|
20230710-03:06:37.000000000 : 8=FIX.4.4|9=62|35=0|34=23|49=TEST80129|52=20230710-03:06:37.000|56=QFXPRICES|10=243|
20230710-03:06:38.000000000 : 8=FIX.4.4|9=62|35=0|34=23|49=QFXPRICES|52=20230710-03:06:33.135|56=TEST80129|10=248|
20230710-03:06:57.000000000 : 8=FIX.4.4|9=62|35=0|34=24|49=TEST80129|52=20230710-03:06:57.000|56=QFXPRICES|10=246|
20230710-03:06:58.000000000 : 8=FIX.4.4|9=62|35=0|34=24|49=QFXPRICES|52=20230710-03:06:53.136|56=TEST80129|10=252|
20230710-03:07:17.000000000 : 8=FIX.4.4|9=62|35=0|34=25|49=TEST80129|52=20230710-03:07:17.000|56=QFXPRICES|10=244|
20230710-03:07:18.000000000 : 8=FIX.4.4|9=62|35=0|34=25|49=QFXPRICES|52=20230710-03:07:13.139|56=TEST80129|10=253|
20230710-03:07:37.000000000 : 8=FIX.4.4|9=62|35=0|34=26|49=TEST80129|52=20230710-03:07:37.000|56=QFXPRICES|10=247|
20230710-03:07:38.000000000 : 8=FIX.4.4|9=62|35=0|34=26|49=QFXPRICES|52=20230710-03:07:33.136|56=TEST80129|10=253|
20230710-03:07:57.000000000 : 8=FIX.4.4|9=62|35=0|34=27|49=TEST80129|52=20230710-03:07:57.000|56=QFXPRICES|10=250|
20230710-03:07:58.000000000 : 8=FIX.4.4|9=62|35=0|34=27|49=QFXPRICES|52=20230710-03:07:53.135|56=TEST80129|10=255|
20230710-03:08:17.000000000 : 8=FIX.4.4|9=62|35=0|34=28|49=TEST80129|52=20230710-03:08:17.000|56=QFXPRICES|10=248|
20230710-03:08:18.000000000 : 8=FIX.4.4|9=62|35=0|34=28|49=QFXPRICES|52=20230710-03:08:13.136|56=TEST80129|10=254|
20230710-03:08:37.000000000 : 8=FIX.4.4|9=62|35=0|34=29|49=TEST80129|52=20230710-03:08:37.000|56=QFXPRICES|10=251|
20230710-03:08:38.000000000 : 8=FIX.4.4|9=62|35=0|34=29|49=QFXPRICES|52=20230710-03:08:33.137|56=TEST80129|10=002|
20230710-03:08:57.000000000 : 8=FIX.4.4|9=62|35=0|34=30|49=TEST80129|52=20230710-03:08:57.000|56=QFXPRICES|10=245|
20230710-03:08:58.000000000 : 8=FIX.4.4|9=62|35=0|34=30|49=QFXPRICES|52=20230710-03:08:53.136|56=TEST80129|10=251|
20230710-03:09:17.000000000 : 8=FIX.4.4|9=62|35=0|34=31|49=TEST80129|52=20230710-03:09:17.000|56=QFXPRICES|10=243|
20230710-03:09:18.000000000 : 8=FIX.4.4|9=62|35=0|34=31|49=QFXPRICES|52=20230710-03:09:13.137|56=TEST80129|10=250|
20230710-03:09:23.000000000 : 8=FIX.4.4|9=106|35=A|34=1|49=TEST80129|52=20230710-03:09:23.000|56=QFXPRICES|98=0|108=20|141=Y|553=test80129|554=fd55ds64|10=050|
20230710-03:09:23.000000000 : 8=FIX.4.4|9=79|35=A|34=1|49=QFXPRICES|52=20230710-03:09:17.777|56=TEST80129|98=0|108=20|141=Y|10=051|
20230710-03:09:23.000000000 : 8=FIX.4.4|9=112|35=R|34=2|49=TEST80129|52=20230710-03:09:23.000|56=QFXPRICES|55=GBPUSD|146=1|262=12356|263=1|264=1|644=99999999|10=021|
20230710-03:09:23.000000000 : 8=FIX.4.4|9=112|35=R|34=3|49=TEST80129|52=20230710-03:09:23.000|56=QFXPRICES|55=EURUSD|146=1|262=12356|263=1|264=1|644=99999999|10=041|
20230710-03:09:23.000000000 : 8=FIX.4.4|9=112|35=R|34=4|49=TEST80129|52=20230710-03:09:23.000|56=QFXPRICES|55=CCCCCC|146=1|262=12356|263=1|264=1|644=99999999|10=228|
20230710-03:09:23.000000000 : 8=FIX.4.4|9=127|35=3|34=2|49=QFXPRICES|52=20230710-03:09:17.982|56=TEST80129|45=2|58=Tag not defined for this message type|371=262|372=R|373=2|10=219|
20230710-03:09:23.000000000 : 8=FIX.4.4|9=127|35=3|34=3|49=QFXPRICES|52=20230710-03:09:18.182|56=TEST80129|45=3|58=Tag not defined for this message type|371=262|372=R|373=2|10=214|
20230710-03:09:23.000000000 : 8=FIX.4.4|9=127|35=3|34=4|49=QFXPRICES|52=20230710-03:09:18.182|56=TEST80129|45=4|58=Tag not defined for this message type|371=262|372=R|373=2|10=216|
20230710-03:12:42.000000000 : 8=FIX.4.4|9=106|35=A|34=1|49=TEST80129|52=20230710-03:12:42.000|56=QFXPRICES|98=0|108=20|141=Y|553=test80129|554=fd55ds64|10=045|
20230710-03:12:42.000000000 : 8=FIX.4.4|9=79|35=A|34=1|49=QFXPRICES|52=20230710-03:12:37.116|56=TEST80129|98=0|108=20|141=Y|10=034|
20230710-03:12:42.000000000 : 8=FIX.4.4|9=112|35=R|34=2|49=TEST80129|52=20230710-03:12:42.000|56=QFXPRICES|55=GBPUSD|146=1|262=12356|263=1|264=1|644=99999999|10=016|
20230710-03:12:42.000000000 : 8=FIX.4.4|9=112|35=R|34=3|49=TEST80129|52=20230710-03:12:42.000|56=QFXPRICES|55=EURUSD|146=1|262=12356|263=1|264=1|644=99999999|10=036|
20230710-03:12:42.000000000 : 8=FIX.4.4|9=112|35=R|34=4|49=TEST80129|52=20230710-03:12:42.000|56=QFXPRICES|55=CCCCCC|146=1|262=12356|263=1|264=1|644=99999999|10=223|
20230710-03:12:42.000000000 : 8=FIX.4.4|9=127|35=3|34=2|49=QFXPRICES|52=20230710-03:12:37.316|56=TEST80129|45=2|58=Tag not defined for this message type|371=262|372=R|373=2|10=206|
20230710-03:12:43.000000000 : 8=FIX.4.4|9=127|35=3|34=3|49=QFXPRICES|52=20230710-03:12:37.514|56=TEST80129|45=3|58=Tag not defined for this message type|371=262|372=R|373=2|10=208|
20230710-03:12:43.000000000 : 8=FIX.4.4|9=127|35=3|34=4|49=QFXPRICES|52=20230710-03:12:37.514|56=TEST80129|45=4|58=Tag not defined for this message type|371=262|372=R|373=2|10=210|
20230710-03:14:28.000000000 : 8=FIX.4.4|9=106|35=A|34=1|49=TEST80129|52=20230710-03:14:28.000|56=QFXPRICES|98=0|108=20|141=Y|553=test80129|554=fd55ds64|10=051|
20230710-03:14:28.000000000 : 8=FIX.4.4|9=79|35=A|34=1|49=QFXPRICES|52=20230710-03:14:22.957|56=TEST80129|98=0|108=20|141=Y|10=043|
20230710-03:14:28.000000000 : 8=FIX.4.4|9=112|35=R|34=2|49=TEST80129|52=20230710-03:14:28.000|56=QFXPRICES|55=GBPUSD|146=1|262=12356|263=1|264=1|644=99999999|10=022|
20230710-03:14:28.000000000 : 8=FIX.4.4|9=112|35=R|34=3|49=TEST80129|52=20230710-03:14:28.000|56=QFXPRICES|55=EURUSD|146=1|262=12356|263=1|264=1|644=99999999|10=042|
20230710-03:14:28.000000000 : 8=FIX.4.4|9=112|35=R|34=4|49=TEST80129|52=20230710-03:14:28.000|56=QFXPRICES|55=CCCCCC|146=1|262=12356|263=1|264=1|644=99999999|10=229|
20230710-03:14:28.000000000 : 8=FIX.4.4|9=127|35=3|34=2|49=QFXPRICES|52=20230710-03:14:23.159|56=TEST80129|45=2|58=Tag not defined for this message type|371=262|372=R|373=2|10=208|
20230710-03:14:28.000000000 : 8=FIX.4.4|9=127|35=3|34=3|49=QFXPRICES|52=20230710-03:14:23.359|56=TEST80129|45=3|58=Tag not defined for this message type|371=262|372=R|373=2|10=212|
20230710-03:14:28.000000000 : 8=FIX.4.4|9=127|35=3|34=4|49=QFXPRICES|52=20230710-03:14:23.359|56=TEST80129|45=4|58=Tag not defined for this message type|371=262|372=R|373=2|10=214|
20230710-03:17:05.000000000 : 8=FIX.4.4|9=106|35=A|34=1|49=TEST80129|52=20230710-03:17:05.000|56=QFXPRICES|98=0|108=20|141=Y|553=test80129|554=fd55ds64|10=049|
20230710-03:17:05.000000000 : 8=FIX.4.4|9=79|35=A|34=1|49=QFXPRICES|52=20230710-03:16:59.860|56=TEST80129|98=0|108=20|141=Y|10=048|
20230710-03:17:05.000000000 : 8=FIX.4.4|9=112|35=R|34=2|49=TEST80129|52=20230710-03:17:05.000|56=QFXPRICES|55=GBPUSD|146=1|262=12356|263=1|264=1|644=99999999|10=020|
20230710-03:17:05.000000000 : 8=FIX.4.4|9=112|35=R|34=3|49=TEST80129|52=20230710-03:17:05.000|56=QFXPRICES|55=EURUSD|146=1|262=12356|263=1|264=1|644=99999999|10=040|
20230710-03:17:05.000000000 : 8=FIX.4.4|9=112|35=R|34=4|49=TEST80129|52=20230710-03:17:05.000|56=QFXPRICES|55=CCCCCC|146=1|262=12356|263=1|264=1|644=99999999|10=227|
20230710-03:17:05.000000000 : 8=FIX.4.4|9=127|35=3|34=2|49=QFXPRICES|52=20230710-03:17:00.061|56=TEST80129|45=2|58=Tag not defined for this message type|371=262|372=R|373=2|10=198|
20230710-03:17:05.000000000 : 8=FIX.4.4|9=127|35=3|34=3|49=QFXPRICES|52=20230710-03:17:00.260|56=TEST80129|45=3|58=Tag not defined for this message type|371=262|372=R|373=2|10=201|
20230710-03:17:05.000000000 : 8=FIX.4.4|9=127|35=3|34=4|49=QFXPRICES|52=20230710-03:17:00.260|56=TEST80129|45=4|58=Tag not defined for this message type|371=262|372=R|373=2|10=203|
20230710-03:17:06.000000000 : 8=FIX.4.4|9=71|35=R|34=5|49=TEST80129|52=20230710-03:17:06.000|56=QFXPRICES|55=CCCCCC|10=029|
20230710-03:17:07.000000000 : 8=FIX.4.4|9=110|35=3|34=5|49=QFXPRICES|52=20230710-03:17:01.550|56=TEST80129|45=5|58=Required tag missing|371=146|372=R|373=1|10=221|
20230710-03:17:26.000000000 : 8=FIX.4.4|9=61|35=0|34=6|49=TEST80129|52=20230710-03:17:26.000|56=QFXPRICES|10=195|
20230710-03:17:27.000000000 : 8=FIX.4.4|9=61|35=0|34=6|49=QFXPRICES|52=20230710-03:17:22.135|56=TEST80129|10=200|
20230710-03:17:46.000000000 : 8=FIX.4.4|9=61|35=0|34=7|49=TEST80129|52=20230710-03:17:46.000|56=QFXPRICES|10=198|
20230710-03:17:47.000000000 : 8=FIX.4.4|9=61|35=0|34=7|49=QFXPRICES|52=20230710-03:17:42.136|56=TEST80129|10=204|
20230710-03:18:06.000000000 : 8=FIX.4.4|9=61|35=0|34=8|49=TEST80129|52=20230710-03:18:06.000|56=QFXPRICES|10=196|
20230710-03:18:07.000000000 : 8=FIX.4.4|9=61|35=0|34=8|49=QFXPRICES|52=20230710-03:18:02.137|56=TEST80129|10=203|
20230710-03:18:26.000000000 : 8=FIX.4.4|9=61|35=0|34=9|49=TEST80129|52=20230710-03:18:26.000|56=QFXPRICES|10=199|
20230710-03:18:27.000000000 : 8=FIX.4.4|9=61|35=0|34=9|49=QFXPRICES|52=20230710-03:18:22.136|56=TEST80129|10=205|
20230710-03:18:46.000000000 : 8=FIX.4.4|9=62|35=0|34=10|49=TEST80129|52=20230710-03:18:46.000|56=QFXPRICES|10=242|
20230710-03:18:47.000000000 : 8=FIX.4.4|9=62|35=0|34=10|49=QFXPRICES|52=20230710-03:18:42.137|56=TEST80129|10=249|
20230710-03:19:06.000000000 : 8=FIX.4.4|9=62|35=0|34=11|49=TEST80129|52=20230710-03:19:06.000|56=QFXPRICES|10=240|
20230710-03:19:07.000000000 : 8=FIX.4.4|9=62|35=0|34=11|49=QFXPRICES|52=20230710-03:19:02.137|56=TEST80129|10=247|
20230710-03:19:26.000000000 : 8=FIX.4.4|9=62|35=0|34=12|49=TEST80129|52=20230710-03:19:26.000|56=QFXPRICES|10=243|
20230710-03:19:27.000000000 : 8=FIX.4.4|9=62|35=0|34=12|49=QFXPRICES|52=20230710-03:19:22.137|56=TEST80129|10=250|
20230710-03:19:46.000000000 : 8=FIX.4.4|9=62|35=0|34=13|49=TEST80129|52=20230710-03:19:46.000|56=QFXPRICES|10=246|
20230710-03:19:47.000000000 : 8=FIX.4.4|9=62|35=0|34=13|49=QFXPRICES|52=20230710-03:19:42.135|56=TEST80129|10=251|
20230710-03:20:06.000000000 : 8=FIX.4.4|9=62|35=0|34=14|49=TEST80129|52=20230710-03:20:06.000|56=QFXPRICES|10=235|
20230710-03:20:07.000000000 : 8=FIX.4.4|9=62|35=0|34=14|49=QFXPRICES|52=20230710-03:20:02.137|56=TEST80129|10=242|
20230710-03:20:26.000000000 : 8=FIX.4.4|9=62|35=0|34=15|49=TEST80129|52=20230710-03:20:26.000|56=QFXPRICES|10=238|
20230710-03:20:27.000000000 : 8=FIX.4.4|9=62|35=0|34=15|49=QFXPRICES|52=20230710-03:20:22.137|56=TEST80129|10=245|
20230710-03:20:46.000000000 : 8=FIX.4.4|9=62|35=0|34=16|49=TEST80129|52=20230710-03:20:46.000|56=QFXPRICES|10=241|
20230710-03:20:47.000000000 : 8=FIX.4.4|9=62|35=0|34=16|49=QFXPRICES|52=20230710-03:20:42.135|56=TEST80129|10=246|
20230710-03:21:06.000000000 : 8=FIX.4.4|9=62|35=0|34=17|49=TEST80129|52=20230710-03:21:06.000|56=QFXPRICES|10=239|
20230710-03:21:07.000000000 : 8=FIX.4.4|9=62|35=0|34=17|49=QFXPRICES|52=20230710-03:21:02.137|56=TEST80129|10=246|
20230710-03:21:26.000000000 : 8=FIX.4.4|9=62|35=0|34=18|49=TEST80129|52=20230710-03:21:26.000|56=QFXPRICES|10=242|
20230710-03:21:27.000000000 : 8=FIX.4.4|9=62|35=0|34=18|49=QFXPRICES|52=20230710-03:21:22.136|56=TEST80129|10=248|
20230710-03:21:46.000000000 : 8=FIX.4.4|9=62|35=0|34=19|49=TEST80129|52=20230710-03:21:46.000|56=QFXPRICES|10=245|
20230710-03:21:47.000000000 : 8=FIX.4.4|9=62|35=0|34=19|49=QFXPRICES|52=20230710-03:21:42.139|56=TEST80129|10=254|
20230710-03:22:06.000000000 : 8=FIX.4.4|9=62|35=0|34=20|49=TEST80129|52=20230710-03:22:06.000|56=QFXPRICES|10=234|
20230710-03:22:07.000000000 : 8=FIX.4.4|9=62|35=0|34=20|49=QFXPRICES|52=20230710-03:22:02.137|56=TEST80129|10=241|
20230710-03:22:26.000000000 : 8=FIX.4.4|9=62|35=0|34=21|49=TEST80129|52=20230710-03:22:26.000|56=QFXPRICES|10=237|
20230710-03:22:27.000000000 : 8=FIX.4.4|9=62|35=0|34=21|49=QFXPRICES|52=20230710-03:22:22.139|56=TEST80129|10=246|
20230710-03:22:46.000000000 : 8=FIX.4.4|9=62|35=0|34=22|49=TEST80129|52=20230710-03:22:46.000|56=QFXPRICES|10=240|
20230710-03:22:47.000000000 : 8=FIX.4.4|9=62|35=0|34=22|49=QFXPRICES|52=20230710-03:22:42.136|56=TEST80129|10=246|
20230710-03:23:06.000000000 : 8=FIX.4.4|9=62|35=0|34=23|49=TEST80129|52=20230710-03:23:06.000|56=QFXPRICES|10=238|
20230710-03:23:07.000000000 : 8=FIX.4.4|9=62|35=0|34=23|49=QFXPRICES|52=20230710-03:23:02.136|56=TEST80129|10=244|
20230710-03:23:26.000000000 : 8=FIX.4.4|9=62|35=0|34=24|49=TEST80129|52=20230710-03:23:26.000|56=QFXPRICES|10=241|
20230710-03:23:27.000000000 : 8=FIX.4.4|9=62|35=0|34=24|49=QFXPRICES|52=20230710-03:23:22.136|56=TEST80129|10=247|
20230710-03:23:46.000000000 : 8=FIX.4.4|9=62|35=0|34=25|49=TEST80129|52=20230710-03:23:46.000|56=QFXPRICES|10=244|
20230710-03:23:47.000000000 : 8=FIX.4.4|9=62|35=0|34=25|49=QFXPRICES|52=20230710-03:23:42.137|56=TEST80129|10=251|
20230710-03:24:06.000000000 : 8=FIX.4.4|9=62|35=0|34=26|49=TEST80129|52=20230710-03:24:06.000|56=QFXPRICES|10=242|
20230710-03:24:07.000000000 : 8=FIX.4.4|9=62|35=0|34=26|49=QFXPRICES|52=20230710-03:24:02.137|56=TEST80129|10=249|
20230710-03:24:26.000000000 : 8=FIX.4.4|9=62|35=0|34=27|49=TEST80129|52=20230710-03:24:26.000|56=QFXPRICES|10=245|
20230710-03:24:27.000000000 : 8=FIX.4.4|9=62|35=0|34=27|49=QFXPRICES|52=20230710-03:24:22.138|56=TEST80129|10=253|
20230710-03:24:46.000000000 : 8=FIX.4.4|9=62|35=0|34=28|49=TEST80129|52=20230710-03:24:46.000|56=QFXPRICES|10=248|
20230710-03:24:47.000000000 : 8=FIX.4.4|9=62|35=0|34=28|49=QFXPRICES|52=20230710-03:24:42.136|56=TEST80129|10=254|
20230710-03:25:06.000000000 : 8=FIX.4.4|9=62|35=0|34=29|49=TEST80129|52=20230710-03:25:06.000|56=QFXPRICES|10=246|
20230710-03:25:07.000000000 : 8=FIX.4.4|9=62|35=0|34=29|49=QFXPRICES|52=20230710-03:25:02.136|56=TEST80129|10=252|
20230710-03:25:26.000000000 : 8=FIX.4.4|9=62|35=0|34=30|49=TEST80129|52=20230710-03:25:26.000|56=QFXPRICES|10=240|
20230710-03:25:27.000000000 : 8=FIX.4.4|9=62|35=0|34=30|49=QFXPRICES|52=20230710-03:25:22.137|56=TEST80129|10=247|
20230710-03:25:46.000000000 : 8=FIX.4.4|9=62|35=0|34=31|49=TEST80129|52=20230710-03:25:46.000|56=QFXPRICES|10=243|
20230710-03:25:47.000000000 : 8=FIX.4.4|9=62|35=0|34=31|49=QFXPRICES|52=20230710-03:25:42.137|56=TEST80129|10=250|
20230710-03:26:06.000000000 : 8=FIX.4.4|9=62|35=0|34=32|49=TEST80129|52=20230710-03:26:06.000|56=QFXPRICES|10=241|
20230710-03:26:07.000000000 : 8=FIX.4.4|9=62|35=0|34=32|49=QFXPRICES|52=20230710-03:26:02.138|56=TEST80129|10=249|
20230710-03:26:26.000000000 : 8=FIX.4.4|9=62|35=0|34=33|49=TEST80129|52=20230710-03:26:26.000|56=QFXPRICES|10=244|
20230710-03:26:27.000000000 : 8=FIX.4.4|9=62|35=0|34=33|49=QFXPRICES|52=20230710-03:26:22.139|56=TEST80129|10=253|
20230710-03:26:46.000000000 : 8=FIX.4.4|9=62|35=0|34=34|49=TEST80129|52=20230710-03:26:46.000|56=QFXPRICES|10=247|
20230710-03:26:47.000000000 : 8=FIX.4.4|9=62|35=0|34=34|49=QFXPRICES|52=20230710-03:26:42.136|56=TEST80129|10=253|
20230710-03:27:06.000000000 : 8=FIX.4.4|9=62|35=0|34=35|49=TEST80129|52=20230710-03:27:06.000|56=QFXPRICES|10=245|
20230710-03:27:07.000000000 : 8=FIX.4.4|9=62|35=0|34=35|49=QFXPRICES|52=20230710-03:27:02.137|56=TEST80129|10=252|
20230710-03:27:26.000000000 : 8=FIX.4.4|9=62|35=0|34=36|49=TEST80129|52=20230710-03:27:26.000|56=QFXPRICES|10=248|
20230710-03:27:27.000000000 : 8=FIX.4.4|9=62|35=0|34=36|49=QFXPRICES|52=20230710-03:27:22.137|56=TEST80129|10=255|
20230710-03:27:46.000000000 : 8=FIX.4.4|9=62|35=0|34=37|49=TEST80129|52=20230710-03:27:46.000|56=QFXPRICES|10=251|
20230710-03:27:47.000000000 : 8=FIX.4.4|9=62|35=0|34=37|49=QFXPRICES|52=20230710-03:27:42.137|56=TEST80129|10=002|
20230710-03:28:06.000000000 : 8=FIX.4.4|9=62|35=0|34=38|49=TEST80129|52=20230710-03:28:06.000|56=QFXPRICES|10=249|
20230710-03:28:07.000000000 : 8=FIX.4.4|9=62|35=0|34=38|49=QFXPRICES|52=20230710-03:28:02.136|56=TEST80129|10=255|
20230710-03:28:26.000000000 : 8=FIX.4.4|9=62|35=0|34=39|49=TEST80129|52=20230710-03:28:26.000|56=QFXPRICES|10=252|
20230710-03:28:27.000000000 : 8=FIX.4.4|9=62|35=0|34=39|49=QFXPRICES|52=20230710-03:28:22.136|56=TEST80129|10=002|
20230710-03:28:46.000000000 : 8=FIX.4.4|9=62|35=0|34=40|49=TEST80129|52=20230710-03:28:46.000|56=QFXPRICES|10=246|
20230710-03:28:47.000000000 : 8=FIX.4.4|9=62|35=0|34=40|49=QFXPRICES|52=20230710-03:28:42.136|56=TEST80129|10=252|
20230710-03:29:06.000000000 : 8=FIX.4.4|9=62|35=0|34=41|49=TEST80129|52=20230710-03:29:06.000|56=QFXPRICES|10=244|
20230710-03:29:07.000000000 : 8=FIX.4.4|9=62|35=0|34=41|49=QFXPRICES|52=20230710-03:29:02.137|56=TEST80129|10=251|
20230710-03:29:26.000000000 : 8=FIX.4.4|9=62|35=0|34=42|49=TEST80129|52=20230710-03:29:26.000|56=QFXPRICES|10=247|
20230710-03:29:27.000000000 : 8=FIX.4.4|9=62|35=0|34=42|49=QFXPRICES|52=20230710-03:29:22.137|56=TEST80129|10=254|
20230710-03:29:46.000000000 : 8=FIX.4.4|9=62|35=0|34=43|49=TEST80129|52=20230710-03:29:46.000|56=QFXPRICES|10=250|
20230710-03:29:47.000000000 : 8=FIX.4.4|9=62|35=0|34=43|49=QFXPRICES|52=20230710-03:29:42.136|56=TEST80129|10=000|
20230710-03:30:06.000000000 : 8=FIX.4.4|9=62|35=0|34=44|49=TEST80129|52=20230710-03:30:06.000|56=QFXPRICES|10=239|
20230710-03:30:07.000000000 : 8=FIX.4.4|9=62|35=0|34=44|49=QFXPRICES|52=20230710-03:30:02.137|56=TEST80129|10=246|
20230710-03:30:26.000000000 : 8=FIX.4.4|9=62|35=0|34=45|49=TEST80129|52=20230710-03:30:26.000|56=QFXPRICES|10=242|
20230710-03:30:27.000000000 : 8=FIX.4.4|9=62|35=0|34=45|49=QFXPRICES|52=20230710-03:30:22.136|56=TEST80129|10=248|
20230710-03:30:46.000000000 : 8=FIX.4.4|9=62|35=0|34=46|49=TEST80129|52=20230710-03:30:46.000|56=QFXPRICES|10=245|
20230710-03:30:47.000000000 : 8=FIX.4.4|9=62|35=0|34=46|49=QFXPRICES|52=20230710-03:30:42.136|56=TEST80129|10=251|
20230710-03:31:06.000000000 : 8=FIX.4.4|9=62|35=0|34=47|49=TEST80129|52=20230710-03:31:06.000|56=QFXPRICES|10=243|
20230710-03:31:07.000000000 : 8=FIX.4.4|9=62|35=0|34=47|49=QFXPRICES|52=20230710-03:31:02.137|56=TEST80129|10=250|
20230710-03:31:26.000000000 : 8=FIX.4.4|9=62|35=0|34=48|49=TEST80129|52=20230710-03:31:26.000|56=QFXPRICES|10=246|
20230710-03:31:27.000000000 : 8=FIX.4.4|9=62|35=0|34=48|49=QFXPRICES|52=20230710-03:31:22.136|56=TEST80129|10=252|
20230710-03:31:46.000000000 : 8=FIX.4.4|9=62|35=0|34=49|49=TEST80129|52=20230710-03:31:46.000|56=QFXPRICES|10=249|
20230710-03:31:47.000000000 : 8=FIX.4.4|9=62|35=0|34=49|49=QFXPRICES|52=20230710-03:31:42.137|56=TEST80129|10=000|
20230710-03:32:06.000000000 : 8=FIX.4.4|9=62|35=0|34=50|49=TEST80129|52=20230710-03:32:06.000|56=QFXPRICES|10=238|
20230710-03:32:07.000000000 : 8=FIX.4.4|9=62|35=0|34=50|49=QFXPRICES|52=20230710-03:32:02.136|56=TEST80129|10=244|
20230710-03:32:26.000000000 : 8=FIX.4.4|9=62|35=0|34=51|49=TEST80129|52=20230710-03:32:26.000|56=QFXPRICES|10=241|
20230710-03:32:27.000000000 : 8=FIX.4.4|9=62|35=0|34=51|49=QFXPRICES|52=20230710-03:32:22.135|56=TEST80129|10=246|
20230710-03:32:46.000000000 : 8=FIX.4.4|9=62|35=0|34=52|49=TEST80129|52=20230710-03:32:46.000|56=QFXPRICES|10=244|
20230710-03:32:47.000000000 : 8=FIX.4.4|9=62|35=0|34=52|49=QFXPRICES|52=20230710-03:32:42.136|56=TEST80129|10=250|
20230710-03:33:06.000000000 : 8=FIX.4.4|9=62|35=0|34=53|49=TEST80129|52=20230710-03:33:06.000|56=QFXPRICES|10=242|
20230710-03:33:07.000000000 : 8=FIX.4.4|9=62|35=0|34=53|49=QFXPRICES|52=20230710-03:33:02.137|56=TEST80129|10=249|
20230710-03:33:26.000000000 : 8=FIX.4.4|9=62|35=0|34=54|49=TEST80129|52=20230710-03:33:26.000|56=QFXPRICES|10=245|
20230710-03:33:27.000000000 : 8=FIX.4.4|9=62|35=0|34=54|49=QFXPRICES|52=20230710-03:33:22.136|56=TEST80129|10=251|
20230710-03:33:46.000000000 : 8=FIX.4.4|9=62|35=0|34=55|49=TEST80129|52=20230710-03:33:46.000|56=QFXPRICES|10=248|
20230710-03:33:47.000000000 : 8=FIX.4.4|9=62|35=0|34=55|49=QFXPRICES|52=20230710-03:33:42.137|56=TEST80129|10=255|
20230710-03:34:06.000000000 : 8=FIX.4.4|9=62|35=0|34=56|49=TEST80129|52=20230710-03:34:06.000|56=QFXPRICES|10=246|
20230710-03:34:07.000000000 : 8=FIX.4.4|9=62|35=0|34=56|49=QFXPRICES|52=20230710-03:34:02.137|56=TEST80129|10=253|
20230710-03:34:26.000000000 : 8=FIX.4.4|9=62|35=0|34=57|49=TEST80129|52=20230710-03:34:26.000|56=QFXPRICES|10=249|
20230710-03:34:27.000000000 : 8=FIX.4.4|9=62|35=0|34=57|49=QFXPRICES|52=20230710-03:34:22.135|56=TEST80129|10=254|
20230710-03:34:46.000000000 : 8=FIX.4.4|9=62|35=0|34=58|49=TEST80129|52=20230710-03:34:46.000|56=QFXPRICES|10=252|
20230710-03:34:47.000000000 : 8=FIX.4.4|9=62|35=0|34=58|49=QFXPRICES|52=20230710-03:34:42.136|56=TEST80129|10=002|
20230710-03:35:06.000000000 : 8=FIX.4.4|9=62|35=0|34=59|49=TEST80129|52=20230710-03:35:06.000|56=QFXPRICES|10=250|
20230710-03:35:07.000000000 : 8=FIX.4.4|9=62|35=0|34=59|49=QFXPRICES|52=20230710-03:35:02.137|56=TEST80129|10=001|
20230710-03:35:26.000000000 : 8=FIX.4.4|9=62|35=0|34=60|49=TEST80129|52=20230710-03:35:26.000|56=QFXPRICES|10=244|
20230710-03:35:27.000000000 : 8=FIX.4.4|9=62|35=0|34=60|49=QFXPRICES|52=20230710-03:35:22.136|56=TEST80129|10=250|
20230710-03:35:46.000000000 : 8=FIX.4.4|9=62|35=0|34=61|49=TEST80129|52=20230710-03:35:46.000|56=QFXPRICES|10=247|
20230710-03:35:47.000000000 : 8=FIX.4.4|9=62|35=0|34=61|49=QFXPRICES|52=20230710-03:35:42.137|56=TEST80129|10=254|
20230710-03:36:06.000000000 : 8=FIX.4.4|9=62|35=0|34=62|49=TEST80129|52=20230710-03:36:06.000|56=QFXPRICES|10=245|
20230710-03:36:07.000000000 : 8=FIX.4.4|9=62|35=0|34=62|49=QFXPRICES|52=20230710-03:36:02.136|56=TEST80129|10=251|
20230710-03:36:26.000000000 : 8=FIX.4.4|9=62|35=0|34=63|49=TEST80129|52=20230710-03:36:26.000|56=QFXPRICES|10=248|
20230710-03:36:27.000000000 : 8=FIX.4.4|9=62|35=0|34=63|49=QFXPRICES|52=20230710-03:36:22.136|56=TEST80129|10=254|
20230710-03:36:46.000000000 : 8=FIX.4.4|9=62|35=0|34=64|49=TEST80129|52=20230710-03:36:46.000|56=QFXPRICES|10=251|
20230710-03:36:47.000000000 : 8=FIX.4.4|9=62|35=0|34=64|49=QFXPRICES|52=20230710-03:36:42.137|56=TEST80129|10=002|
20230710-03:37:06.000000000 : 8=FIX.4.4|9=62|35=0|34=65|49=TEST80129|52=20230710-03:37:06.000|56=QFXPRICES|10=249|
20230710-03:37:07.000000000 : 8=FIX.4.4|9=62|35=0|34=65|49=QFXPRICES|52=20230710-03:37:02.137|56=TEST80129|10=000|
20230710-03:37:27.000000000 : 8=FIX.4.4|9=62|35=0|34=66|49=TEST80129|52=20230710-03:37:27.000|56=QFXPRICES|10=253|
20230710-03:37:27.000000000 : 8=FIX.4.4|9=62|35=0|34=66|49=QFXPRICES|52=20230710-03:37:22.135|56=TEST80129|10=001|
20230710-03:37:47.000000000 : 8=FIX.4.4|9=62|35=0|34=67|49=TEST80129|52=20230710-03:37:47.000|56=QFXPRICES|10=000|
20230710-03:37:47.000000000 : 8=FIX.4.4|9=62|35=0|34=67|49=QFXPRICES|52=20230710-03:37:42.137|56=TEST80129|10=006|
20230710-03:38:07.000000000 : 8=FIX.4.4|9=62|35=0|34=68|49=TEST80129|52=20230710-03:38:07.000|56=QFXPRICES|10=254|
20230710-03:38:07.000000000 : 8=FIX.4.4|9=62|35=0|34=68|49=QFXPRICES|52=20230710-03:38:02.137|56=TEST80129|10=004|
20230710-03:38:27.000000000 : 8=FIX.4.4|9=62|35=0|34=69|49=QFXPRICES|52=20230710-03:38:22.136|56=TEST80129|10=006|
20230710-03:38:27.000000000 : 8=FIX.4.4|9=62|35=0|34=69|49=TEST80129|52=20230710-03:38:27.000|56=QFXPRICES|10=001|
20230710-03:38:47.000000000 : 8=FIX.4.4|9=62|35=0|34=70|49=QFXPRICES|52=20230710-03:38:42.136|56=TEST80129|10=000|
20230710-03:38:47.000000000 : 8=FIX.4.4|9=62|35=0|34=70|49=TEST80129|52=20230710-03:38:47.000|56=QFXPRICES|10=251|
20230710-03:39:07.000000000 : 8=FIX.4.4|9=62|35=0|34=71|49=TEST80129|52=20230710-03:39:07.000|56=QFXPRICES|10=249|
20230710-03:39:07.000000000 : 8=FIX.4.4|9=62|35=0|34=71|49=QFXPRICES|52=20230710-03:39:02.137|56=TEST80129|10=255|
20230710-03:39:27.000000000 : 8=FIX.4.4|9=62|35=0|34=72|49=TEST80129|52=20230710-03:39:27.000|56=QFXPRICES|10=252|
20230710-03:39:27.000000000 : 8=FIX.4.4|9=62|35=0|34=72|49=QFXPRICES|52=20230710-03:39:22.137|56=TEST80129|10=002|
20230710-03:39:47.000000000 : 8=FIX.4.4|9=62|35=0|34=73|49=TEST80129|52=20230710-03:39:47.000|56=QFXPRICES|10=255|
20230710-03:39:47.000000000 : 8=FIX.4.4|9=62|35=0|34=73|49=QFXPRICES|52=20230710-03:39:42.136|56=TEST80129|10=004|
20230710-03:40:07.000000000 : 8=FIX.4.4|9=62|35=0|34=74|49=QFXPRICES|52=20230710-03:40:02.136|56=TEST80129|10=249|
20230710-03:40:07.000000000 : 8=FIX.4.4|9=62|35=0|34=74|49=TEST80129|52=20230710-03:40:07.000|56=QFXPRICES|10=244|
20230710-03:40:27.000000000 : 8=FIX.4.4|9=62|35=0|34=75|49=QFXPRICES|52=20230710-03:40:22.135|56=TEST80129|10=251|
20230710-03:40:27.000000000 : 8=FIX.4.4|9=62|35=0|34=75|49=TEST80129|52=20230710-03:40:27.000|56=QFXPRICES|10=247|
20230710-03:40:47.000000000 : 8=FIX.4.4|9=62|35=0|34=76|49=TEST80129|52=20230710-03:40:47.000|56=QFXPRICES|10=250|
20230710-03:40:47.000000000 : 8=FIX.4.4|9=62|35=0|34=76|49=QFXPRICES|52=20230710-03:40:42.136|56=TEST80129|10=255|
20230710-03:41:07.000000000 : 8=FIX.4.4|9=62|35=0|34=77|49=TEST80129|52=20230710-03:41:07.000|56=QFXPRICES|10=248|
20230710-03:41:07.000000000 : 8=FIX.4.4|9=62|35=0|34=77|49=QFXPRICES|52=20230710-03:41:02.136|56=TEST80129|10=253|
20230710-03:41:27.000000000 : 8=FIX.4.4|9=62|35=0|34=78|49=TEST80129|52=20230710-03:41:27.000|56=QFXPRICES|10=251|
20230710-03:41:27.000000000 : 8=FIX.4.4|9=62|35=0|34=78|49=QFXPRICES|52=20230710-03:41:22.136|56=TEST80129|10=000|
20230710-03:41:47.000000000 : 8=FIX.4.4|9=62|35=0|34=79|49=QFXPRICES|52=20230710-03:41:42.136|56=TEST80129|10=003|
20230710-03:41:47.000000000 : 8=FIX.4.4|9=62|35=0|34=79|49=TEST80129|52=20230710-03:41:47.000|56=QFXPRICES|10=254|
20230710-03:42:07.000000000 : 8=FIX.4.4|9=62|35=0|34=80|49=TEST80129|52=20230710-03:42:07.000|56=QFXPRICES|10=243|
20230710-03:42:07.000000000 : 8=FIX.4.4|9=62|35=0|34=80|49=QFXPRICES|52=20230710-03:42:02.136|56=TEST80129|10=248|
20230710-03:42:27.000000000 : 8=FIX.4.4|9=62|35=0|34=81|49=TEST80129|52=20230710-03:42:27.000|56=QFXPRICES|10=246|
20230710-03:42:27.000000000 : 8=FIX.4.4|9=62|35=0|34=81|49=QFXPRICES|52=20230710-03:42:22.138|56=TEST80129|10=253|
20230710-03:42:47.000000000 : 8=FIX.4.4|9=62|35=0|34=82|49=TEST80129|52=20230710-03:42:47.000|56=QFXPRICES|10=249|
20230710-03:42:47.000000000 : 8=FIX.4.4|9=62|35=0|34=82|49=QFXPRICES|52=20230710-03:42:42.136|56=TEST80129|10=254|
20230710-03:43:07.000000000 : 8=FIX.4.4|9=62|35=0|34=83|49=QFXPRICES|52=20230710-03:43:02.137|56=TEST80129|10=253|
20230710-03:43:07.000000000 : 8=FIX.4.4|9=62|35=0|34=83|49=TEST80129|52=20230710-03:43:07.000|56=QFXPRICES|10=247|
20230710-03:43:27.000000000 : 8=FIX.4.4|9=62|35=0|34=84|49=QFXPRICES|52=20230710-03:43:22.135|56=TEST80129|10=254|
20230710-03:43:27.000000000 : 8=FIX.4.4|9=62|35=0|34=84|49=TEST80129|52=20230710-03:43:27.000|56=QFXPRICES|10=250|
20230710-03:43:47.000000000 : 8=FIX.4.4|9=62|35=0|34=85|49=TEST80129|52=20230710-03:43:47.000|56=QFXPRICES|10=253|
20230710-03:43:47.000000000 : 8=FIX.4.4|9=62|35=0|34=85|49=QFXPRICES|52=20230710-03:43:42.137|56=TEST80129|10=003|
20230710-03:44:07.000000000 : 8=FIX.4.4|9=62|35=0|34=86|49=TEST80129|52=20230710-03:44:07.000|56=QFXPRICES|10=251|
20230710-03:44:07.000000000 : 8=FIX.4.4|9=62|35=0|34=86|49=QFXPRICES|52=20230710-03:44:02.137|56=TEST80129|10=001|
20230710-03:44:27.000000000 : 8=FIX.4.4|9=62|35=0|34=87|49=TEST80129|52=20230710-03:44:27.000|56=QFXPRICES|10=254|
20230710-03:44:27.000000000 : 8=FIX.4.4|9=62|35=0|34=87|49=QFXPRICES|52=20230710-03:44:22.137|56=TEST80129|10=004|
20230710-03:44:47.000000000 : 8=FIX.4.4|9=62|35=0|34=88|49=QFXPRICES|52=20230710-03:44:42.137|56=TEST80129|10=007|
20230710-03:44:47.000000000 : 8=FIX.4.4|9=62|35=0|34=88|49=TEST80129|52=20230710-03:44:47.000|56=QFXPRICES|10=001|
20230710-03:45:07.000000000 : 8=FIX.4.4|9=62|35=0|34=89|49=QFXPRICES|52=20230710-03:45:02.137|56=TEST80129|10=005|
20230710-03:45:07.000000000 : 8=FIX.4.4|9=62|35=0|34=89|49=TEST80129|52=20230710-03:45:07.000|56=QFXPRICES|10=255|
20230710-03:45:27.000000000 : 8=FIX.4.4|9=62|35=0|34=90|49=TEST80129|52=20230710-03:45:27.000|56=QFXPRICES|10=249|
20230710-03:45:27.000000000 : 8=FIX.4.4|9=62|35=0|34=90|49=QFXPRICES|52=20230710-03:45:22.136|56=TEST80129|10=254|
20230710-03:45:47.000000000 : 8=FIX.4.4|9=62|35=0|34=91|49=TEST80129|52=20230710-03:45:47.000|56=QFXPRICES|10=252|
20230710-03:45:47.000000000 : 8=FIX.4.4|9=62|35=0|34=91|49=QFXPRICES|52=20230710-03:45:42.136|56=TEST80129|10=001|
20230710-03:46:07.000000000 : 8=FIX.4.4|9=62|35=0|34=92|49=TEST80129|52=20230710-03:46:07.000|56=QFXPRICES|10=250|
20230710-03:46:07.000000000 : 8=FIX.4.4|9=62|35=0|34=92|49=QFXPRICES|52=20230710-03:46:02.137|56=TEST80129|10=000|
20230710-03:46:27.000000000 : 8=FIX.4.4|9=62|35=0|34=93|49=QFXPRICES|52=20230710-03:46:22.136|56=TEST80129|10=002|
20230710-03:46:27.000000000 : 8=FIX.4.4|9=62|35=0|34=93|49=TEST80129|52=20230710-03:46:27.000|56=QFXPRICES|10=253|
20230710-03:46:47.000000000 : 8=FIX.4.4|9=62|35=0|34=94|49=QFXPRICES|52=20230710-03:46:42.136|56=TEST80129|10=005|
20230710-03:46:47.000000000 : 8=FIX.4.4|9=62|35=0|34=94|49=TEST80129|52=20230710-03:46:47.000|56=QFXPRICES|10=000|
20230710-03:47:07.000000000 : 8=FIX.4.4|9=62|35=0|34=95|49=TEST80129|52=20230710-03:47:07.000|56=QFXPRICES|10=254|
20230710-03:47:07.000000000 : 8=FIX.4.4|9=62|35=0|34=95|49=QFXPRICES|52=20230710-03:47:02.137|56=TEST80129|10=004|
20230710-03:47:27.000000000 : 8=FIX.4.4|9=62|35=0|34=96|49=TEST80129|52=20230710-03:47:27.000|56=QFXPRICES|10=001|
20230710-03:47:27.000000000 : 8=FIX.4.4|9=62|35=0|34=96|49=QFXPRICES|52=20230710-03:47:22.136|56=TEST80129|10=006|
20230710-03:47:47.000000000 : 8=FIX.4.4|9=62|35=0|34=97|49=TEST80129|52=20230710-03:47:47.000|56=QFXPRICES|10=004|
20230710-03:47:47.000000000 : 8=FIX.4.4|9=62|35=0|34=97|49=QFXPRICES|52=20230710-03:47:42.136|56=TEST80129|10=009|
20230710-03:48:07.000000000 : 8=FIX.4.4|9=62|35=0|34=98|49=QFXPRICES|52=20230710-03:48:02.137|56=TEST80129|10=008|
20230710-03:48:07.000000000 : 8=FIX.4.4|9=62|35=0|34=98|49=TEST80129|52=20230710-03:48:07.000|56=QFXPRICES|10=002|
20230710-03:48:27.000000000 : 8=FIX.4.4|9=62|35=0|34=99|49=QFXPRICES|52=20230710-03:48:22.136|56=TEST80129|10=010|
20230710-03:48:27.000000000 : 8=FIX.4.4|9=62|35=0|34=99|49=TEST80129|52=20230710-03:48:27.000|56=QFXPRICES|10=005|
20230710-03:48:47.000000000 : 8=FIX.4.4|9=63|35=0|34=100|49=TEST80129|52=20230710-03:48:47.000|56=QFXPRICES|10=039|
20230710-03:48:47.000000000 : 8=FIX.4.4|9=63|35=0|34=100|49=QFXPRICES|52=20230710-03:48:42.136|56=TEST80129|10=044|
20230710-03:49:07.000000000 : 8=FIX.4.4|9=63|35=0|34=101|49=TEST80129|52=20230710-03:49:07.000|56=QFXPRICES|10=037|
20230710-03:49:07.000000000 : 8=FIX.4.4|9=63|35=0|34=101|49=QFXPRICES|52=20230710-03:49:02.137|56=TEST80129|10=043|
20230710-03:49:27.000000000 : 8=FIX.4.4|9=63|35=0|34=102|49=TEST80129|52=20230710-03:49:27.000|56=QFXPRICES|10=040|
20230710-03:49:27.000000000 : 8=FIX.4.4|9=63|35=0|34=102|49=QFXPRICES|52=20230710-03:49:22.136|56=TEST80129|10=045|
20230710-03:49:47.000000000 : 8=FIX.4.4|9=63|35=0|34=103|49=QFXPRICES|52=20230710-03:49:42.136|56=TEST80129|10=048|
20230710-03:49:47.000000000 : 8=FIX.4.4|9=63|35=0|34=103|49=TEST80129|52=20230710-03:49:47.000|56=QFXPRICES|10=043|
20230710-03:50:07.000000000 : 8=FIX.4.4|9=63|35=0|34=104|49=QFXPRICES|52=20230710-03:50:02.137|56=TEST80129|10=038|
20230710-03:50:07.000000000 : 8=FIX.4.4|9=63|35=0|34=104|49=TEST80129|52=20230710-03:50:07.000|56=QFXPRICES|10=032|
20230710-03:50:27.000000000 : 8=FIX.4.4|9=63|35=0|34=105|49=TEST80129|52=20230710-03:50:27.000|56=QFXPRICES|10=035|
20230710-03:50:27.000000000 : 8=FIX.4.4|9=63|35=0|34=105|49=QFXPRICES|52=20230710-03:50:22.136|56=TEST80129|10=040|
20230710-03:50:47.000000000 : 8=FIX.4.4|9=63|35=0|34=106|49=TEST80129|52=20230710-03:50:47.000|56=QFXPRICES|10=038|
20230710-03:50:47.000000000 : 8=FIX.4.4|9=63|35=0|34=106|49=QFXPRICES|52=20230710-03:50:42.136|56=TEST80129|10=043|
20230710-03:51:07.000000000 : 8=FIX.4.4|9=63|35=0|34=107|49=QFXPRICES|52=20230710-03:51:02.137|56=TEST80129|10=042|
20230710-03:51:07.000000000 : 8=FIX.4.4|9=63|35=0|34=107|49=TEST80129|52=20230710-03:51:07.000|56=QFXPRICES|10=036|
20230710-03:51:27.000000000 : 8=FIX.4.4|9=63|35=0|34=108|49=QFXPRICES|52=20230710-03:51:22.137|56=TEST80129|10=045|
20230710-03:51:27.000000000 : 8=FIX.4.4|9=63|35=0|34=108|49=TEST80129|52=20230710-03:51:27.000|56=QFXPRICES|10=039|
20230710-03:51:47.000000000 : 8=FIX.4.4|9=63|35=0|34=109|49=TEST80129|52=20230710-03:51:47.000|56=QFXPRICES|10=042|
20230710-03:51:47.000000000 : 8=FIX.4.4|9=63|35=0|34=109|49=QFXPRICES|52=20230710-03:51:42.135|56=TEST80129|10=046|
20230710-03:52:07.000000000 : 8=FIX.4.4|9=63|35=0|34=110|49=TEST80129|52=20230710-03:52:07.000|56=QFXPRICES|10=031|
20230710-03:52:07.000000000 : 8=FIX.4.4|9=63|35=0|34=110|49=QFXPRICES|52=20230710-03:52:02.137|56=TEST80129|10=037|
20230710-03:52:27.000000000 : 8=FIX.4.4|9=63|35=0|34=111|49=TEST80129|52=20230710-03:52:27.000|56=QFXPRICES|10=034|
20230710-03:52:27.000000000 : 8=FIX.4.4|9=63|35=0|34=111|49=QFXPRICES|52=20230710-03:52:22.132|56=TEST80129|10=035|
20230710-03:52:47.000000000 : 8=FIX.4.4|9=63|35=0|34=112|49=QFXPRICES|52=20230710-03:52:42.135|56=TEST80129|10=041|
20230710-03:52:47.000000000 : 8=FIX.4.4|9=63|35=0|34=112|49=TEST80129|52=20230710-03:52:47.000|56=QFXPRICES|10=037|
20230710-03:53:07.000000000 : 8=FIX.4.4|9=63|35=0|34=113|49=QFXPRICES|52=20230710-03:53:02.136|56=TEST80129|10=040|
20230710-03:53:07.000000000 : 8=FIX.4.4|9=63|35=0|34=113|49=TEST80129|52=20230710-03:53:07.000|56=QFXPRICES|10=035|
20230710-03:53:27.000000000 : 8=FIX.4.4|9=63|35=0|34=114|49=TEST80129|52=20230710-03:53:27.000|56=QFXPRICES|10=038|
20230710-03:53:27.000000000 : 8=FIX.4.4|9=63|35=0|34=114|49=QFXPRICES|52=20230710-03:53:22.136|56=TEST80129|10=043|
20230710-03:53:47.000000000 : 8=FIX.4.4|9=63|35=0|34=115|49=TEST80129|52=20230710-03:53:47.000|56=QFXPRICES|10=041|
20230710-03:53:47.000000000 : 8=FIX.4.4|9=63|35=0|34=115|49=QFXPRICES|52=20230710-03:53:42.136|56=TEST80129|10=046|
20230710-03:54:07.000000000 : 8=FIX.4.4|9=63|35=0|34=116|49=TEST80129|52=20230710-03:54:07.000|56=QFXPRICES|10=039|
20230710-03:54:07.000000000 : 8=FIX.4.4|9=63|35=0|34=116|49=QFXPRICES|52=20230710-03:54:02.137|56=TEST80129|10=045|
20230710-03:54:27.000000000 : 8=FIX.4.4|9=63|35=0|34=117|49=QFXPRICES|52=20230710-03:54:22.136|56=TEST80129|10=047|
20230710-03:54:27.000000000 : 8=FIX.4.4|9=63|35=0|34=117|49=TEST80129|52=20230710-03:54:27.000|56=QFXPRICES|10=042|
20230710-11:33:52.000000000 : 8=FIX.4.4|9=106|35=A|34=1|49=TEST80129|52=20230710-11:33:52.000|56=QFXPRICES|98=0|108=20|141=Y|553=test80129|554=fd55ds64|10=048|
20230710-11:33:52.000000000 : 8=FIX.4.4|9=79|35=A|34=1|49=QFXPRICES|52=20230710-11:33:46.974|56=TEST80129|98=0|108=20|141=Y|10=048|
20230710-11:33:52.000000000 : 8=FIX.4.4|9=112|35=R|34=2|49=TEST80129|52=20230710-11:33:52.000|56=QFXPRICES|55=GBPUSD|146=1|262=12356|263=1|264=1|644=99999999|10=019|
20230710-11:33:52.000000000 : 8=FIX.4.4|9=112|35=R|34=3|49=TEST80129|52=20230710-11:33:52.000|56=QFXPRICES|55=EURUSD|146=1|262=12356|263=1|264=1|644=99999999|10=039|
20230710-11:33:52.000000000 : 8=FIX.4.4|9=112|35=R|34=4|49=TEST80129|52=20230710-11:33:52.000|56=QFXPRICES|55=CCCCCC|146=1|262=12356|263=1|264=1|644=99999999|10=226|
20230710-11:33:52.000000000 : 8=FIX.4.4|9=127|35=3|34=2|49=QFXPRICES|52=20230710-11:33:47.181|56=TEST80129|45=2|58=Tag not defined for this message type|371=262|372=R|373=2|10=209|
20230710-11:33:53.000000000 : 8=FIX.4.4|9=127|35=3|34=3|49=QFXPRICES|52=20230710-11:33:47.388|56=TEST80129|45=3|58=Tag not defined for this message type|371=262|372=R|373=2|10=220|
20230710-11:33:53.000000000 : 8=FIX.4.4|9=127|35=3|34=4|49=QFXPRICES|52=20230710-11:33:47.388|56=TEST80129|45=4|58=Tag not defined for this message type|371=262|372=R|373=2|10=222|
20230710-11:34:12.000000000 : 8=FIX.4.4|9=61|35=0|34=5|49=TEST80129|52=20230710-11:34:12.000|56=QFXPRICES|10=187|
20230710-11:34:13.000000000 : 8=FIX.4.4|9=61|35=0|34=5|49=QFXPRICES|52=20230710-11:34:08.136|56=TEST80129|10=202|
20230710-11:34:33.000000000 : 8=FIX.4.4|9=61|35=0|34=6|49=TEST80129|52=20230710-11:34:33.000|56=QFXPRICES|10=191|
20230710-11:34:33.000000000 : 8=FIX.4.4|9=61|35=0|34=6|49=QFXPRICES|52=20230710-11:34:28.137|56=TEST80129|10=206|
20230710-11:34:53.000000000 : 8=FIX.4.4|9=61|35=0|34=7|49=TEST80129|52=20230710-11:34:53.000|56=QFXPRICES|10=194|
20230710-11:34:53.000000000 : 8=FIX.4.4|9=61|35=0|34=7|49=QFXPRICES|52=20230710-11:34:48.136|56=TEST80129|10=208|
20230710-11:35:13.000000000 : 8=FIX.4.4|9=61|35=0|34=8|49=TEST80129|52=20230710-11:35:13.000|56=QFXPRICES|10=192|
20230710-11:35:13.000000000 : 8=FIX.4.4|9=61|35=0|34=8|49=QFXPRICES|52=20230710-11:35:08.137|56=TEST80129|10=207|
20230710-11:35:33.000000000 : 8=FIX.4.4|9=61|35=0|34=9|49=TEST80129|52=20230710-11:35:33.000|56=QFXPRICES|10=195|
20230710-11:35:33.000000000 : 8=FIX.4.4|9=61|35=0|34=9|49=QFXPRICES|52=20230710-11:35:28.136|56=TEST80129|10=209|
20230710-11:35:53.000000000 : 8=FIX.4.4|9=62|35=0|34=10|49=TEST80129|52=20230710-11:35:53.000|56=QFXPRICES|10=238|
20230710-11:35:53.000000000 : 8=FIX.4.4|9=62|35=0|34=10|49=QFXPRICES|52=20230710-11:35:48.135|56=TEST80129|10=251|
20230710-11:36:13.000000000 : 8=FIX.4.4|9=62|35=0|34=11|49=TEST80129|52=20230710-11:36:13.000|56=QFXPRICES|10=236|
20230710-11:36:13.000000000 : 8=FIX.4.4|9=62|35=0|34=11|49=QFXPRICES|52=20230710-11:36:08.136|56=TEST80129|10=250|
20230710-11:36:33.000000000 : 8=FIX.4.4|9=62|35=0|34=12|49=TEST80129|52=20230710-11:36:33.000|56=QFXPRICES|10=239|
20230710-11:36:33.000000000 : 8=FIX.4.4|9=62|35=0|34=12|49=QFXPRICES|52=20230710-11:36:28.137|56=TEST80129|10=254|
20230710-11:36:53.000000000 : 8=FIX.4.4|9=62|35=0|34=13|49=TEST80129|52=20230710-11:36:53.000|56=QFXPRICES|10=242|
20230710-11:36:53.000000000 : 8=FIX.4.4|9=62|35=0|34=13|49=QFXPRICES|52=20230710-11:36:48.136|56=TEST80129|10=000|
20230710-11:37:13.000000000 : 8=FIX.4.4|9=62|35=0|34=14|49=TEST80129|52=20230710-11:37:13.000|56=QFXPRICES|10=240|
20230710-11:37:13.000000000 : 8=FIX.4.4|9=62|35=0|34=14|49=QFXPRICES|52=20230710-11:37:08.137|56=TEST80129|10=255|
20230710-11:37:33.000000000 : 8=FIX.4.4|9=62|35=0|34=15|49=TEST80129|52=20230710-11:37:33.000|56=QFXPRICES|10=243|
20230710-11:37:33.000000000 : 8=FIX.4.4|9=62|35=0|34=15|49=QFXPRICES|52=20230710-11:37:28.135|56=TEST80129|10=000|
20230710-11:37:53.000000000 : 8=FIX.4.4|9=62|35=0|34=16|49=TEST80129|52=20230710-11:37:53.000|56=QFXPRICES|10=246|
20230710-11:37:53.000000000 : 8=FIX.4.4|9=62|35=0|34=16|49=QFXPRICES|52=20230710-11:37:48.138|56=TEST80129|10=006|
20230710-11:38:13.000000000 : 8=FIX.4.4|9=62|35=0|34=17|49=TEST80129|52=20230710-11:38:13.000|56=QFXPRICES|10=244|
20230710-11:38:13.000000000 : 8=FIX.4.4|9=62|35=0|34=17|49=QFXPRICES|52=20230710-11:38:08.136|56=TEST80129|10=002|
20230710-11:38:33.000000000 : 8=FIX.4.4|9=62|35=0|34=18|49=TEST80129|52=20230710-11:38:33.000|56=QFXPRICES|10=247|
20230710-11:38:33.000000000 : 8=FIX.4.4|9=62|35=0|34=18|49=QFXPRICES|52=20230710-11:38:28.137|56=TEST80129|10=006|
20230710-11:38:53.000000000 : 8=FIX.4.4|9=62|35=0|34=19|49=TEST80129|52=20230710-11:38:53.000|56=QFXPRICES|10=250|
20230710-11:38:53.000000000 : 8=FIX.4.4|9=62|35=0|34=19|49=QFXPRICES|52=20230710-11:38:48.138|56=TEST80129|10=010|
20230710-11:39:13.000000000 : 8=FIX.4.4|9=62|35=0|34=20|49=TEST80129|52=20230710-11:39:13.000|56=QFXPRICES|10=239|
20230710-11:39:13.000000000 : 8=FIX.4.4|9=62|35=0|34=20|49=QFXPRICES|52=20230710-11:39:08.137|56=TEST80129|10=254|
20230710-11:39:33.000000000 : 8=FIX.4.4|9=62|35=0|34=21|49=TEST80129|52=20230710-11:39:33.000|56=QFXPRICES|10=242|
20230710-11:39:33.000000000 : 8=FIX.4.4|9=62|35=0|34=21|49=QFXPRICES|52=20230710-11:39:28.137|56=TEST80129|10=001|
20230710-11:39:53.000000000 : 8=FIX.4.4|9=62|35=0|34=22|49=QFXPRICES|52=20230710-11:39:48.139|56=TEST80129|10=006|
20230710-11:39:53.000000000 : 8=FIX.4.4|9=62|35=0|34=22|49=TEST80129|52=20230710-11:39:53.000|56=QFXPRICES|10=245|
20230710-11:40:13.000000000 : 8=FIX.4.4|9=62|35=0|34=23|49=TEST80129|52=20230710-11:40:13.000|56=QFXPRICES|10=234|
20230710-11:40:13.000000000 : 8=FIX.4.4|9=62|35=0|34=23|49=QFXPRICES|52=20230710-11:40:08.136|56=TEST80129|10=248|
20230710-11:40:33.000000000 : 8=FIX.4.4|9=62|35=0|34=24|49=TEST80129|52=20230710-11:40:33.000|56=QFXPRICES|10=237|
20230710-11:40:33.000000000 : 8=FIX.4.4|9=62|35=0|34=24|49=QFXPRICES|52=20230710-11:40:28.137|56=TEST80129|10=252|
20230710-11:40:53.000000000 : 8=FIX.4.4|9=62|35=0|34=25|49=TEST80129|52=20230710-11:40:53.000|56=QFXPRICES|10=240|
20230710-11:40:53.000000000 : 8=FIX.4.4|9=62|35=0|34=25|49=QFXPRICES|52=20230710-11:40:48.136|56=TEST80129|10=254|
20230710-11:41:13.000000000 : 8=FIX.4.4|9=62|35=0|34=26|49=TEST80129|52=20230710-11:41:13.000|56=QFXPRICES|10=238|
20230710-11:41:13.000000000 : 8=FIX.4.4|9=62|35=0|34=26|49=QFXPRICES|52=20230710-11:41:08.136|56=TEST80129|10=252|
20230710-11:41:33.000000000 : 8=FIX.4.4|9=62|35=0|34=27|49=TEST80129|52=20230710-11:41:33.000|56=QFXPRICES|10=241|
20230710-11:41:33.000000000 : 8=FIX.4.4|9=62|35=0|34=27|49=QFXPRICES|52=20230710-11:41:28.136|56=TEST80129|10=255|
20230710-11:41:53.000000000 : 8=FIX.4.4|9=62|35=0|34=28|49=TEST80129|52=20230710-11:41:53.000|56=QFXPRICES|10=244|
20230710-11:41:53.000000000 : 8=FIX.4.4|9=62|35=0|34=28|49=QFXPRICES|52=20230710-11:41:48.137|56=TEST80129|10=003|
20230710-11:42:13.000000000 : 8=FIX.4.4|9=62|35=0|34=29|49=TEST80129|52=20230710-11:42:13.000|56=QFXPRICES|10=242|
20230710-11:42:13.000000000 : 8=FIX.4.4|9=62|35=0|34=29|49=QFXPRICES|52=20230710-11:42:08.137|56=TEST80129|10=001|
20230710-11:42:33.000000000 : 8=FIX.4.4|9=62|35=0|34=30|49=TEST80129|52=20230710-11:42:33.000|56=QFXPRICES|10=236|
20230710-11:42:33.000000000 : 8=FIX.4.4|9=62|35=0|34=30|49=QFXPRICES|52=20230710-11:42:28.137|56=TEST80129|10=251|
20230710-11:42:53.000000000 : 8=FIX.4.4|9=62|35=0|34=31|49=QFXPRICES|52=20230710-11:42:48.136|56=TEST80129|10=253|
20230710-11:42:53.000000000 : 8=FIX.4.4|9=62|35=0|34=31|49=TEST80129|52=20230710-11:42:53.000|56=QFXPRICES|10=239|
20230710-11:43:13.000000000 : 8=FIX.4.4|9=62|35=0|34=32|49=TEST80129|52=20230710-11:43:13.000|56=QFXPRICES|10=237|
20230710-11:43:13.000000000 : 8=FIX.4.4|9=62|35=0|34=32|49=QFXPRICES|52=20230710-11:43:08.137|56=TEST80129|10=252|
20230710-11:43:33.000000000 : 8=FIX.4.4|9=62|35=0|34=33|49=TEST80129|52=20230710-11:43:33.000|56=QFXPRICES|10=240|
20230710-11:43:33.000000000 : 8=FIX.4.4|9=62|35=0|34=33|49=QFXPRICES|52=20230710-11:43:28.135|56=TEST80129|10=253|
20230710-11:43:53.000000000 : 8=FIX.4.4|9=62|35=0|34=34|49=TEST80129|52=20230710-11:43:53.000|56=QFXPRICES|10=243|
20230710-11:43:53.000000000 : 8=FIX.4.4|9=62|35=0|34=34|49=QFXPRICES|52=20230710-11:43:48.135|56=TEST80129|10=000|
20230710-11:44:13.000000000 : 8=FIX.4.4|9=62|35=0|34=35|49=TEST80129|52=20230710-11:44:13.000|56=QFXPRICES|10=241|
20230710-11:44:13.000000000 : 8=FIX.4.4|9=62|35=0|34=35|49=QFXPRICES|52=20230710-11:44:08.136|56=TEST80129|10=255|
20230710-11:44:33.000000000 : 8=FIX.4.4|9=62|35=0|34=36|49=TEST80129|52=20230710-11:44:33.000|56=QFXPRICES|10=244|
20230710-11:44:33.000000000 : 8=FIX.4.4|9=62|35=0|34=36|49=QFXPRICES|52=20230710-11:44:28.136|56=TEST80129|10=002|
20230710-11:44:53.000000000 : 8=FIX.4.4|9=62|35=0|34=37|49=TEST80129|52=20230710-11:44:53.000|56=QFXPRICES|10=247|
20230710-11:44:53.000000000 : 8=FIX.4.4|9=62|35=0|34=37|49=QFXPRICES|52=20230710-11:44:48.135|56=TEST80129|10=004|
20230710-11:45:13.000000000 : 8=FIX.4.4|9=62|35=0|34=38|49=TEST80129|52=20230710-11:45:13.000|56=QFXPRICES|10=245|
20230710-11:45:13.000000000 : 8=FIX.4.4|9=62|35=0|34=38|49=QFXPRICES|52=20230710-11:45:08.136|56=TEST80129|10=003|
20230710-11:45:33.000000000 : 8=FIX.4.4|9=62|35=0|34=39|49=TEST80129|52=20230710-11:45:33.000|56=QFXPRICES|10=248|
20230710-11:45:33.000000000 : 8=FIX.4.4|9=62|35=0|34=39|49=QFXPRICES|52=20230710-11:45:28.136|56=TEST80129|10=006|
20230710-11:45:53.000000000 : 8=FIX.4.4|9=62|35=0|34=40|49=QFXPRICES|52=20230710-11:45:48.137|56=TEST80129|10=001|
20230710-11:45:53.000000000 : 8=FIX.4.4|9=62|35=0|34=40|49=TEST80129|52=20230710-11:45:53.000|56=QFXPRICES|10=242|
20230710-11:46:13.000000000 : 8=FIX.4.4|9=62|35=0|34=41|49=TEST80129|52=20230710-11:46:13.000|56=QFXPRICES|10=240|
20230710-11:46:13.000000000 : 8=FIX.4.4|9=62|35=0|34=41|49=QFXPRICES|52=20230710-11:46:08.137|56=TEST80129|10=255|
20230710-11:46:33.000000000 : 8=FIX.4.4|9=62|35=0|34=42|49=TEST80129|52=20230710-11:46:33.000|56=QFXPRICES|10=243|
20230710-11:46:33.000000000 : 8=FIX.4.4|9=62|35=0|34=42|49=QFXPRICES|52=20230710-11:46:28.136|56=TEST80129|10=001|
20230710-11:46:53.000000000 : 8=FIX.4.4|9=62|35=0|34=43|49=TEST80129|52=20230710-11:46:53.000|56=QFXPRICES|10=246|
20230710-11:46:53.000000000 : 8=FIX.4.4|9=62|35=0|34=43|49=QFXPRICES|52=20230710-11:46:48.136|56=TEST80129|10=004|
20230710-11:47:13.000000000 : 8=FIX.4.4|9=62|35=0|34=44|49=TEST80129|52=20230710-11:47:13.000|56=QFXPRICES|10=244|
20230710-11:47:13.000000000 : 8=FIX.4.4|9=62|35=0|34=44|49=QFXPRICES|52=20230710-11:47:08.137|56=TEST80129|10=003|
20230710-11:47:33.000000000 : 8=FIX.4.4|9=62|35=0|34=45|49=TEST80129|52=20230710-11:47:33.000|56=QFXPRICES|10=247|
20230710-11:47:33.000000000 : 8=FIX.4.4|9=62|35=0|34=45|49=QFXPRICES|52=20230710-11:47:28.136|56=TEST80129|10=005|
