2023-07-09 01:18:12,992 INFO [toAdmin] FIX.4.4:TEST80129->QFXPRICES:Quote | 8=FIX.4.4, 9=61, 35=5, 34=1, 49=TEST80129, 52=20230709-06:18:12.000, 56=QFXPRICES, 10=202
2023-07-09 01:18:13,004 INFO Session created with sessionID = FIX.4.4:TEST80129->QFXPRICES:Quote.
2023-07-09 01:19:54,896 INFO [toAdmin] FIX.4.4:TEST80129->QFXPRICES | 8=FIX.4.4, 9=61, 35=5, 34=1, 49=TEST80129, 52=20230709-06:19:54.000, 56=QFXPRICES, 10=209
2023-07-09 01:20:19,557 INFO [toAdmin] FIX.4.4:TEST80129->QFXPRICES:Trade | 8=FIX.4.4, 9=61, 35=5, 34=1, 49=TEST80129, 52=20230709-06:20:19.000, 56=QFXPRICES, 10=202
2023-07-09 01:20:49,462 INFO [toAdmin] FIX.4.4:TEST80129->QFXPRICES:Quote | 8=FIX.4.4, 9=61, 35=5, 34=1, 49=TEST80129, 52=20230709-06:20:49.000, 56=QFXPRICES, 10=205
2023-07-09 01:20:49,474 INFO Session created with sessionID = FIX.4.4:TEST80129->QFXPRICES:Quote.
2023-07-09 01:25:45,406 INFO [toAdmin] FIX.4.4:TEST80129->QFXPRICES:Trade | 8=FIX.4.4, 9=61, 35=5, 34=1, 49=TEST80129, 52=20230709-06:25:45.000, 56=QFXPRICES, 10=206
2023-07-09 01:25:45,419 INFO Session created with sessionID = FIX.4.4:TEST80129->QFXPRICES:Trade.
2023-07-09 01:26:18,119 INFO [toAdmin] FIX.4.4:TEST80129->QFXPRICES:Trade | 8=FIX.4.4, 9=61, 35=5, 34=1, 49=TEST80129, 52=20230709-06:26:18.000, 56=QFXPRICES, 10=207
2023-07-09 01:26:18,130 INFO Session created with sessionID = FIX.4.4:TEST80129->QFXPRICES:Trade.
2023-07-09 01:32:51,247 INFO [toAdmin] FIX.4.4:TEST80129->QFXPRICES:Quote | 8=FIX.4.4, 9=61, 35=5, 34=1, 49=TEST80129, 52=20230709-06:32:51.000, 56=QFXPRICES, 10=201
2023-07-09 01:32:51,261 INFO Session created with sessionID = FIX.4.4:TEST80129->QFXPRICES:Quote.
2023-07-09 01:41:09,754 INFO [toAdmin] FIX.4.4:TEST80129->QFXPRICES:Quote | 8=FIX.4.4, 9=61, 35=5, 34=1, 49=TEST80129, 52=20230709-06:41:09.000, 56=QFXPRICES, 10=204
2023-07-09 01:41:09,764 INFO Session created with sessionID = FIX.4.4:TEST80129->QFXPRICES:Quote.
2023-07-09 01:50:12,306 INFO [toAdmin] FIX.4.4:TEST80129->QFXPRICES:Quote | 8=FIX.4.4, 9=61, 35=5, 34=1, 49=TEST80129, 52=20230709-06:50:12.000, 56=QFXPRICES, 10=198
2023-07-09 01:50:12,317 INFO Session created with sessionID = FIX.4.4:TEST80129->QFXPRICES:Quote.
